{
  "_format": "hh-sol-artifact-1",
  "contractName": "NYCDescriptor",
  "sourceName": "contracts/NYCDescriptor.sol",
  "abi": [
    {
      "inputs": [],
      "stateMutability": "nonpayable",
      "type": "constructor"
    },
    {
      "anonymous": false,
      "inputs": [
        {
          "indexed": true,
          "internalType": "address",
          "name": "owner",
          "type": "address"
        },
        {
          "indexed": true,
          "internalType": "address",
          "name": "approved",
          "type": "address"
        },
        {
          "indexed": true,
          "internalType": "uint256",
          "name": "tokenId",
          "type": "uint256"
        }
      ],
      "name": "Approval",
      "type": "event"
    },
    {
      "anonymous": false,
      "inputs": [
        {
          "indexed": true,
          "internalType": "address",
          "name": "owner",
          "type": "address"
        },
        {
          "indexed": true,
          "internalType": "address",
          "name": "operator",
          "type": "address"
        },
        {
          "indexed": false,
          "internalType": "bool",
          "name": "approved",
          "type": "bool"
        }
      ],
      "name": "ApprovalForAll",
      "type": "event"
    },
    {
      "anonymous": false,
      "inputs": [
        {
          "indexed": false,
          "internalType": "address",
          "name": "sender",
          "type": "address"
        },
        {
          "indexed": false,
          "internalType": "uint256",
          "name": "tokenId",
          "type": "uint256"
        }
      ],
      "name": "NewEpicNFTMinted",
      "type": "event"
    },
    {
      "anonymous": false,
      "inputs": [
        {
          "indexed": true,
          "internalType": "address",
          "name": "from",
          "type": "address"
        },
        {
          "indexed": true,
          "internalType": "address",
          "name": "to",
          "type": "address"
        },
        {
          "indexed": true,
          "internalType": "uint256",
          "name": "tokenId",
          "type": "uint256"
        }
      ],
      "name": "Transfer",
      "type": "event"
    },
    {
      "inputs": [
        {
          "internalType": "uint256",
          "name": "",
          "type": "uint256"
        },
        {
          "internalType": "uint256",
          "name": "",
          "type": "uint256"
        }
      ],
      "name": "NFTtoRLEindex",
      "outputs": [
        {
          "internalType": "uint256",
          "name": "",
          "type": "uint256"
        }
      ],
      "stateMutability": "view",
      "type": "function"
    },
    {
      "inputs": [
        {
          "internalType": "uint256",
          "name": "_id",
          "type": "uint256"
        }
      ],
      "name": "RLEtoSVGMain",
      "outputs": [
        {
          "internalType": "string",
          "name": "",
          "type": "string"
        }
      ],
      "stateMutability": "view",
      "type": "function"
    },
    {
      "inputs": [],
      "name": "_headID",
      "outputs": [
        {
          "internalType": "uint256",
          "name": "_value",
          "type": "uint256"
        }
      ],
      "stateMutability": "view",
      "type": "function"
    },
    {
      "inputs": [],
      "name": "_headPaletteID",
      "outputs": [
        {
          "internalType": "uint256",
          "name": "_value",
          "type": "uint256"
        }
      ],
      "stateMutability": "view",
      "type": "function"
    },
    {
      "inputs": [],
      "name": "_jacketID",
      "outputs": [
        {
          "internalType": "uint256",
          "name": "_value",
          "type": "uint256"
        }
      ],
      "stateMutability": "view",
      "type": "function"
    },
    {
      "inputs": [],
      "name": "_jacketPaletteID",
      "outputs": [
        {
          "internalType": "uint256",
          "name": "_value",
          "type": "uint256"
        }
      ],
      "stateMutability": "view",
      "type": "function"
    },
    {
      "inputs": [],
      "name": "_skinID",
      "outputs": [
        {
          "internalType": "uint256",
          "name": "_value",
          "type": "uint256"
        }
      ],
      "stateMutability": "view",
      "type": "function"
    },
    {
      "inputs": [],
      "name": "_skinPaletteID",
      "outputs": [
        {
          "internalType": "uint256",
          "name": "_value",
          "type": "uint256"
        }
      ],
      "stateMutability": "view",
      "type": "function"
    },
    {
      "inputs": [
        {
          "internalType": "uint256[]",
          "name": "_headRLE",
          "type": "uint256[]"
        }
      ],
      "name": "addHead",
      "outputs": [],
      "stateMutability": "nonpayable",
      "type": "function"
    },
    {
      "inputs": [
        {
          "internalType": "uint256[]",
          "name": "_jacketRLE",
          "type": "uint256[]"
        }
      ],
      "name": "addJacket",
      "outputs": [],
      "stateMutability": "nonpayable",
      "type": "function"
    },
    {
      "inputs": [
        {
          "internalType": "string[][]",
          "name": "newPalettes",
          "type": "string[][]"
        }
      ],
      "name": "addManyPalettesToHeadPalette",
      "outputs": [],
      "stateMutability": "nonpayable",
      "type": "function"
    },
    {
      "inputs": [
        {
          "internalType": "string[][]",
          "name": "newPalettes",
          "type": "string[][]"
        }
      ],
      "name": "addManyPalettesToJacketPalette",
      "outputs": [],
      "stateMutability": "nonpayable",
      "type": "function"
    },
    {
      "inputs": [
        {
          "internalType": "string[]",
          "name": "newColors",
          "type": "string[]"
        }
      ],
      "name": "addPaletteToSkinPalette",
      "outputs": [],
      "stateMutability": "nonpayable",
      "type": "function"
    },
    {
      "inputs": [
        {
          "internalType": "uint256[]",
          "name": "_skinRLE",
          "type": "uint256[]"
        }
      ],
      "name": "addSkin",
      "outputs": [],
      "stateMutability": "nonpayable",
      "type": "function"
    },
    {
      "inputs": [
        {
          "internalType": "address",
          "name": "to",
          "type": "address"
        },
        {
          "internalType": "uint256",
          "name": "tokenId",
          "type": "uint256"
        }
      ],
      "name": "approve",
      "outputs": [],
      "stateMutability": "nonpayable",
      "type": "function"
    },
    {
      "inputs": [
        {
          "internalType": "address",
          "name": "owner",
          "type": "address"
        }
      ],
      "name": "balanceOf",
      "outputs": [
        {
          "internalType": "uint256",
          "name": "",
          "type": "uint256"
        }
      ],
      "stateMutability": "view",
      "type": "function"
    },
    {
      "inputs": [
        {
          "internalType": "uint256[]",
          "name": "_componentRLE",
          "type": "uint256[]"
        },
        {
          "internalType": "string[]",
          "name": "_componentPalette",
          "type": "string[]"
        }
      ],
      "name": "componentToSVG",
      "outputs": [
        {
          "internalType": "bytes",
          "name": "",
          "type": "bytes"
        }
      ],
      "stateMutability": "pure",
      "type": "function"
    },
    {
      "inputs": [
        {
          "internalType": "uint256",
          "name": "tokenId",
          "type": "uint256"
        }
      ],
      "name": "getApproved",
      "outputs": [
        {
          "internalType": "address",
          "name": "",
          "type": "address"
        }
      ],
      "stateMutability": "view",
      "type": "function"
    },
    {
      "inputs": [
        {
          "internalType": "uint256",
          "name": "_id",
          "type": "uint256"
        }
      ],
      "name": "getHead",
      "outputs": [
        {
          "internalType": "uint256[]",
          "name": "",
          "type": "uint256[]"
        }
      ],
      "stateMutability": "view",
      "type": "function"
    },
    {
      "inputs": [
        {
          "internalType": "uint256",
          "name": "_id",
          "type": "uint256"
        }
      ],
      "name": "getHeadPalette",
      "outputs": [
        {
          "internalType": "string[]",
          "name": "",
          "type": "string[]"
        }
      ],
      "stateMutability": "view",
      "type": "function"
    },
    {
      "inputs": [
        {
          "internalType": "uint256",
          "name": "_id",
          "type": "uint256"
        }
      ],
      "name": "getJacket",
      "outputs": [
        {
          "internalType": "uint256[]",
          "name": "",
          "type": "uint256[]"
        }
      ],
      "stateMutability": "view",
      "type": "function"
    },
    {
      "inputs": [
        {
          "internalType": "uint256",
          "name": "_id",
          "type": "uint256"
        }
      ],
      "name": "getJacketPalette",
      "outputs": [
        {
          "internalType": "string[]",
          "name": "",
          "type": "string[]"
        }
      ],
      "stateMutability": "view",
      "type": "function"
    },
    {
      "inputs": [
        {
          "internalType": "uint256",
          "name": "_id",
          "type": "uint256"
        }
      ],
      "name": "getSkin",
      "outputs": [
        {
          "internalType": "uint256[]",
          "name": "",
          "type": "uint256[]"
        }
      ],
      "stateMutability": "view",
      "type": "function"
    },
    {
      "inputs": [
        {
          "internalType": "uint256",
          "name": "_id",
          "type": "uint256"
        }
      ],
      "name": "getSkinPalette",
      "outputs": [
        {
          "internalType": "string[]",
          "name": "",
          "type": "string[]"
        }
      ],
      "stateMutability": "view",
      "type": "function"
    },
    {
      "inputs": [],
      "name": "headCount",
      "outputs": [
        {
          "internalType": "uint256",
          "name": "",
          "type": "uint256"
        }
      ],
      "stateMutability": "view",
      "type": "function"
    },
    {
      "inputs": [],
      "name": "headPaletteCount",
      "outputs": [
        {
          "internalType": "uint256",
          "name": "",
          "type": "uint256"
        }
      ],
      "stateMutability": "view",
      "type": "function"
    },
    {
      "inputs": [
        {
          "internalType": "uint256",
          "name": "",
          "type": "uint256"
        },
        {
          "internalType": "uint256",
          "name": "",
          "type": "uint256"
        }
      ],
      "name": "headPalettes",
      "outputs": [
        {
          "internalType": "string",
          "name": "",
          "type": "string"
        }
      ],
      "stateMutability": "view",
      "type": "function"
    },
    {
      "inputs": [
        {
          "internalType": "uint256",
          "name": "",
          "type": "uint256"
        },
        {
          "internalType": "uint256",
          "name": "",
          "type": "uint256"
        }
      ],
      "name": "heads",
      "outputs": [
        {
          "internalType": "uint256",
          "name": "",
          "type": "uint256"
        }
      ],
      "stateMutability": "view",
      "type": "function"
    },
    {
      "inputs": [
        {
          "internalType": "address",
          "name": "owner",
          "type": "address"
        },
        {
          "internalType": "address",
          "name": "operator",
          "type": "address"
        }
      ],
      "name": "isApprovedForAll",
      "outputs": [
        {
          "internalType": "bool",
          "name": "",
          "type": "bool"
        }
      ],
      "stateMutability": "view",
      "type": "function"
    },
    {
      "inputs": [],
      "name": "jacketCount",
      "outputs": [
        {
          "internalType": "uint256",
          "name": "",
          "type": "uint256"
        }
      ],
      "stateMutability": "view",
      "type": "function"
    },
    {
      "inputs": [],
      "name": "jacketPaletteCount",
      "outputs": [
        {
          "internalType": "uint256",
          "name": "",
          "type": "uint256"
        }
      ],
      "stateMutability": "view",
      "type": "function"
    },
    {
      "inputs": [
        {
          "internalType": "uint256",
          "name": "",
          "type": "uint256"
        },
        {
          "internalType": "uint256",
          "name": "",
          "type": "uint256"
        }
      ],
      "name": "jacketPalettes",
      "outputs": [
        {
          "internalType": "string",
          "name": "",
          "type": "string"
        }
      ],
      "stateMutability": "view",
      "type": "function"
    },
    {
      "inputs": [
        {
          "internalType": "uint256",
          "name": "",
          "type": "uint256"
        },
        {
          "internalType": "uint256",
          "name": "",
          "type": "uint256"
        }
      ],
      "name": "jackets",
      "outputs": [
        {
          "internalType": "uint256",
          "name": "",
          "type": "uint256"
        }
      ],
      "stateMutability": "view",
      "type": "function"
    },
    {
      "inputs": [
        {
          "internalType": "uint256[]",
          "name": "seed",
          "type": "uint256[]"
        },
        {
          "internalType": "string",
          "name": "url",
          "type": "string"
        }
      ],
      "name": "makeAnEpicNFT",
      "outputs": [],
      "stateMutability": "nonpayable",
      "type": "function"
    },
    {
      "inputs": [],
      "name": "name",
      "outputs": [
        {
          "internalType": "string",
          "name": "",
          "type": "string"
        }
      ],
      "stateMutability": "view",
      "type": "function"
    },
    {
      "inputs": [
        {
          "internalType": "uint256",
          "name": "tokenId",
          "type": "uint256"
        }
      ],
      "name": "ownerOf",
      "outputs": [
        {
          "internalType": "address",
          "name": "",
          "type": "address"
        }
      ],
      "stateMutability": "view",
      "type": "function"
    },
    {
      "inputs": [
        {
          "internalType": "address",
          "name": "from",
          "type": "address"
        },
        {
          "internalType": "address",
          "name": "to",
          "type": "address"
        },
        {
          "internalType": "uint256",
          "name": "tokenId",
          "type": "uint256"
        }
      ],
      "name": "safeTransferFrom",
      "outputs": [],
      "stateMutability": "nonpayable",
      "type": "function"
    },
    {
      "inputs": [
        {
          "internalType": "address",
          "name": "from",
          "type": "address"
        },
        {
          "internalType": "address",
          "name": "to",
          "type": "address"
        },
        {
          "internalType": "uint256",
          "name": "tokenId",
          "type": "uint256"
        },
        {
          "internalType": "bytes",
          "name": "data",
          "type": "bytes"
        }
      ],
      "name": "safeTransferFrom",
      "outputs": [],
      "stateMutability": "nonpayable",
      "type": "function"
    },
    {
      "inputs": [
        {
          "internalType": "address",
          "name": "operator",
          "type": "address"
        },
        {
          "internalType": "bool",
          "name": "approved",
          "type": "bool"
        }
      ],
      "name": "setApprovalForAll",
      "outputs": [],
      "stateMutability": "nonpayable",
      "type": "function"
    },
    {
      "inputs": [],
      "name": "skinCount",
      "outputs": [
        {
          "internalType": "uint256",
          "name": "",
          "type": "uint256"
        }
      ],
      "stateMutability": "view",
      "type": "function"
    },
    {
      "inputs": [],
      "name": "skinPaletteCount",
      "outputs": [
        {
          "internalType": "uint256",
          "name": "",
          "type": "uint256"
        }
      ],
      "stateMutability": "view",
      "type": "function"
    },
    {
      "inputs": [
        {
          "internalType": "uint256",
          "name": "",
          "type": "uint256"
        },
        {
          "internalType": "uint256",
          "name": "",
          "type": "uint256"
        }
      ],
      "name": "skinPalettes",
      "outputs": [
        {
          "internalType": "string",
          "name": "",
          "type": "string"
        }
      ],
      "stateMutability": "view",
      "type": "function"
    },
    {
      "inputs": [
        {
          "internalType": "uint256",
          "name": "",
          "type": "uint256"
        },
        {
          "internalType": "uint256",
          "name": "",
          "type": "uint256"
        }
      ],
      "name": "skins",
      "outputs": [
        {
          "internalType": "uint256",
          "name": "",
          "type": "uint256"
        }
      ],
      "stateMutability": "view",
      "type": "function"
    },
    {
      "inputs": [
        {
          "internalType": "bytes4",
          "name": "interfaceId",
          "type": "bytes4"
        }
      ],
      "name": "supportsInterface",
      "outputs": [
        {
          "internalType": "bool",
          "name": "",
          "type": "bool"
        }
      ],
      "stateMutability": "view",
      "type": "function"
    },
    {
      "inputs": [],
      "name": "symbol",
      "outputs": [
        {
          "internalType": "string",
          "name": "",
          "type": "string"
        }
      ],
      "stateMutability": "view",
      "type": "function"
    },
    {
      "inputs": [
        {
          "internalType": "uint256",
          "name": "index",
          "type": "uint256"
        }
      ],
      "name": "tokenByIndex",
      "outputs": [
        {
          "internalType": "uint256",
          "name": "",
          "type": "uint256"
        }
      ],
      "stateMutability": "view",
      "type": "function"
    },
    {
      "inputs": [
        {
          "internalType": "address",
          "name": "owner",
          "type": "address"
        },
        {
          "internalType": "uint256",
          "name": "index",
          "type": "uint256"
        }
      ],
      "name": "tokenOfOwnerByIndex",
      "outputs": [
        {
          "internalType": "uint256",
          "name": "",
          "type": "uint256"
        }
      ],
      "stateMutability": "view",
      "type": "function"
    },
    {
      "inputs": [
        {
          "internalType": "uint256",
          "name": "tokenId",
          "type": "uint256"
        }
      ],
      "name": "tokenURI",
      "outputs": [
        {
          "internalType": "string",
          "name": "",
          "type": "string"
        }
      ],
      "stateMutability": "view",
      "type": "function"
    },
    {
      "inputs": [],
      "name": "totalSupply",
      "outputs": [
        {
          "internalType": "uint256",
          "name": "",
          "type": "uint256"
        }
      ],
      "stateMutability": "view",
      "type": "function"
    },
    {
      "inputs": [
        {
          "internalType": "address",
          "name": "from",
          "type": "address"
        },
        {
          "internalType": "address",
          "name": "to",
          "type": "address"
        },
        {
          "internalType": "uint256",
          "name": "tokenId",
          "type": "uint256"
        }
      ],
      "name": "transferFrom",
      "outputs": [],
      "stateMutability": "nonpayable",
      "type": "function"
    }
  ],
  "bytecode": "0x60806040523480156200001157600080fd5b506040518060400160405280600781526020017f4e59432d4e4654000000000000000000000000000000000000000000000000008152506040518060400160405280601381526020017f6e616d656c6573732d796f7574682d636c756200000000000000000000000000815250816000908051906020019062000096929190620001cf565b508060019080519060200190620000af929190620001cf565b505050620000fd6040518060400160405280601d81526020017f50726f7065727479206f66206e616d656c657373796f757468636c75620000008152506200010360201b620023ad1760201c565b620003ac565b620001a3816040516024016200011a919062000323565b6040516020818303038152906040527f41304fac000000000000000000000000000000000000000000000000000000007bffffffffffffffffffffffffffffffffffffffffffffffffffffffff19166020820180517bffffffffffffffffffffffffffffffffffffffffffffffffffffffff8381831617835250505050620001a660201b60201c565b50565b60008151905060006a636f6e736f6c652e6c6f679050602083016000808483855afa5050505050565b828054620001dd9062000376565b90600052602060002090601f0160209004810192826200020157600085556200024d565b82601f106200021c57805160ff19168380011785556200024d565b828001600101855582156200024d579182015b828111156200024c5782518255916020019190600101906200022f565b5b5090506200025c919062000260565b5090565b5b808211156200027b57600081600090555060010162000261565b5090565b600081519050919050565b600082825260208201905092915050565b60005b83811015620002bb5780820151818401526020810190506200029e565b83811115620002cb576000848401525b50505050565b6000601f19601f8301169050919050565b6000620002ef826200027f565b620002fb81856200028a565b93506200030d8185602086016200029b565b6200031881620002d1565b840191505092915050565b600060208201905081810360008301526200033f8184620002e2565b905092915050565b7f4e487b7100000000000000000000000000000000000000000000000000000000600052602260045260246000fd5b600060028204905060018216806200038f57607f821691505b60208210811415620003a657620003a562000347565b5b50919050565b615f1a80620003bc6000396000f3fe608060405234801561001057600080fd5b50600436106102d65760003560e01c806370fdde3011610182578063c87b56dd116100e9578063e1aacffa116100a2578063e375792a1161007c578063e375792a146109a3578063e3859771146109bf578063e3abe1a7146109dd578063e985e9c514610a0d576102d6565b8063e1aacffa14610927578063e2445d4c14610957578063e2fcbca114610973576102d6565b8063c87b56dd1461082d578063cc2aa0911461085d578063cc975e901461087b578063d0d94c51146108ab578063d11a56f0146108db578063d9a0ce3d1461090b576102d6565b80639720c9691161013b5780639720c9691461075b57806398e4f5811461078b578063a22cb465146107bb578063aa6280bd146107d7578063adf0cedf146107f3578063b88d4fde14610811576102d6565b806370fdde301461069557806378041043146106b357806384847d80146106d157806389b73e1c146107015780638d1330081461071f57806395d89b411461073d576102d6565b80632f745c59116102415780634f6ccce7116101fa5780635badc9f3116101d45780635badc9f3146105e95780636352211e1461061957806369b8f2e21461064957806370a0823114610665576102d6565b80634f6ccce7146105595780634fb99d051461058957806355ea856a146105b9576102d6565b80632f745c5914610485578063334deba9146104b557806335b55fb0146104d3578063367e65f6146104f157806342842e0e1461050d5780634b761e8114610529576102d6565b8063207652531161029357806320765253146103b15780632141cc3a146103cf57806323b872dd146103ff57806323d8bcb71461041b57806327bfe2d8146104395780632881ecba14610469576102d6565b806301ffc9a7146102db57806306fdde031461030b578063081812fc14610329578063095ea7b3146103595780631389048b1461037557806318160ddd14610393575b600080fd5b6102f560048036038101906102f09190613fb3565b610a3d565b6040516103029190613ffb565b60405180910390f35b610313610a4f565b60405161032091906140af565b60405180910390f35b610343600480360381019061033e9190614107565b610ae1565b6040516103509190614175565b60405180910390f35b610373600480360381019061036e91906141bc565b610b27565b005b61037d610c3f565b60405161038a919061420b565b60405180910390f35b61039b610c50565b6040516103a8919061420b565b60405180910390f35b6103b9610c5d565b6040516103c6919061420b565b60405180910390f35b6103e960048036038101906103e49190614226565b610c69565b6040516103f691906140af565b60405180910390f35b61041960048036038101906104149190614266565b610d22565b005b610423610d82565b604051610430919061420b565b60405180910390f35b610453600480360381019061044e9190614597565b610d93565b6040516104609190614664565b60405180910390f35b610483600480360381019061047e91906146e1565b610f77565b005b61049f600480360381019061049a91906141bc565b610f85565b6040516104ac919061420b565b60405180910390f35b6104bd61102a565b6040516104ca919061420b565b60405180910390f35b6104db61103b565b6040516104e8919061420b565b60405180910390f35b61050b600480360381019061050691906146e1565b611047565b005b61052760048036038101906105229190614266565b611055565b005b610543600480360381019061053e9190614226565b611075565b60405161055091906140af565b60405180910390f35b610573600480360381019061056e9190614107565b61112e565b604051610580919061420b565b60405180910390f35b6105a3600480360381019061059e9190614226565b61119f565b6040516105b0919061420b565b60405180910390f35b6105d360048036038101906105ce9190614107565b6111d0565b6040516105e0919061483a565b60405180910390f35b61060360048036038101906105fe9190614226565b6112bc565b604051610610919061420b565b60405180910390f35b610633600480360381019061062e9190614107565b6112ed565b6040516106409190614175565b60405180910390f35b610663600480360381019061065e919061485c565b61139f565b005b61067f600480360381019061067a91906148d8565b61151e565b60405161068c919061420b565b60405180910390f35b61069d6115d6565b6040516106aa919061420b565b60405180910390f35b6106bb6115e2565b6040516106c8919061420b565b60405180910390f35b6106eb60048036038101906106e69190614226565b6115f3565b6040516106f8919061420b565b60405180910390f35b610709611624565b604051610716919061420b565b60405180910390f35b610727611635565b604051610734919061420b565b60405180910390f35b610745611641565b60405161075291906140af565b60405180910390f35b61077560048036038101906107709190614107565b6116d3565b60405161078291906149c3565b60405180910390f35b6107a560048036038101906107a09190614107565b61173e565b6040516107b291906149c3565b60405180910390f35b6107d560048036038101906107d09190614a11565b6117a9565b005b6107f160048036038101906107ec91906146e1565b6117bf565b005b6107fb6117cd565b604051610808919061420b565b60405180910390f35b61082b60048036038101906108269190614af2565b6117d9565b005b61084760048036038101906108429190614107565b61183b565b60405161085491906140af565b60405180910390f35b61086561184d565b604051610872919061420b565b60405180910390f35b61089560048036038101906108909190614226565b61185e565b6040516108a2919061420b565b60405180910390f35b6108c560048036038101906108c09190614107565b61188f565b6040516108d291906149c3565b60405180910390f35b6108f560048036038101906108f09190614107565b6118fa565b604051610902919061483a565b60405180910390f35b61092560048036038101906109209190614bcb565b6119e6565b005b610941600480360381019061093c9190614107565b611a39565b60405161094e91906140af565b60405180910390f35b610971600480360381019061096c9190614c6e565b61203c565b005b61098d60048036038101906109889190614107565b612115565b60405161099a919061483a565b60405180910390f35b6109bd60048036038101906109b89190614bcb565b612201565b005b6109c7612254565b6040516109d4919061420b565b60405180910390f35b6109f760048036038101906109f29190614226565b612260565b604051610a0491906140af565b60405180910390f35b610a276004803603810190610a229190614cbb565b612319565b604051610a349190613ffb565b60405180910390f35b6000610a4882612446565b9050919050565b606060008054610a5e90614d2a565b80601f0160208091040260200160405190810160405280929190818152602001828054610a8a90614d2a565b8015610ad75780601f10610aac57610100808354040283529160200191610ad7565b820191906000526020600020905b815481529060010190602001808311610aba57829003601f168201915b5050505050905090565b6000610aec826124c0565b6004600083815260200190815260200160002060009054906101000a900473ffffffffffffffffffffffffffffffffffffffff169050919050565b6000610b32826112ed565b90508073ffffffffffffffffffffffffffffffffffffffff168373ffffffffffffffffffffffffffffffffffffffff161415610ba3576040517f08c379a0000000000000000000000000000000000000000000000000000000008152600401610b9a90614dce565b60405180910390fd5b8073ffffffffffffffffffffffffffffffffffffffff16610bc261250b565b73ffffffffffffffffffffffffffffffffffffffff161480610bf15750610bf081610beb61250b565b612319565b5b610c30576040517f08c379a0000000000000000000000000000000000000000000000000000000008152600401610c2790614e60565b60405180910390fd5b610c3a8383612513565b505050565b6000610c4b600f6125cc565b905090565b6000600980549050905090565b60178060000154905081565b600d6020528160005260406000208181548110610c8557600080fd5b90600052602060002001600091509150508054610ca190614d2a565b80601f0160208091040260200160405190810160405280929190818152602001828054610ccd90614d2a565b8015610d1a5780601f10610cef57610100808354040283529160200191610d1a565b820191906000526020600020905b815481529060010190602001808311610cfd57829003601f168201915b505050505081565b610d33610d2d61250b565b826125da565b610d72576040517f08c379a0000000000000000000000000000000000000000000000000000000008152600401610d6990614ef2565b60405180910390fd5b610d7d83838361266f565b505050565b6000610d8e60166125cc565b905090565b6060600083600181518110610dab57610daa614f12565b5b60200260200101519050600084600381518110610dcb57610dca614f12565b5b60200260200101519050600085600081518110610deb57610dea614f12565b5b6020026020010151905060006040518060200160405280600081525090506000600490505b8751811015610f69576000888281518110610e2e57610e2d614f12565b5b60200260200101519050600089600184610e489190614f70565b81518110610e5957610e58614f12565b5b6020026020010151905060008114610f04576000610e82836014610e7d9190614fc6565b6128d6565b610e8c60146128d6565b610e95896128d6565b610e9e896128d6565b8d8681518110610eb157610eb0614f12565b5b6020026020010151604051602001610ecd959493929190615140565b60405160208183030381529060405290508481604051602001610ef19291906151e5565b6040516020818303038152906040529450505b816014610f119190614fc6565b86610f1c9190614f70565b9550868610610f5357601485610f329190614f70565b945089600381518110610f4857610f47614f12565b5b602002602001015195505b600283610f609190614f70565b92505050610e10565b819550505050505092915050565b610f818282612a37565b5050565b6000610f908361151e565b8210610fd1576040517f08c379a0000000000000000000000000000000000000000000000000000000008152600401610fc89061527b565b60405180910390fd5b600760008473ffffffffffffffffffffffffffffffffffffffff1673ffffffffffffffffffffffffffffffffffffffff168152602001908152602001600020600083815260200190815260200160002054905092915050565b600061103660176125cc565b905090565b600e8060000154905081565b6110518282612a71565b5050565b611070838383604051806020016040528060008152506117d9565b505050565b6015602052816000526040600020818154811061109157600080fd5b906000526020600020016000915091505080546110ad90614d2a565b80601f01602080910402602001604051908101604052809291908181526020018280546110d990614d2a565b80156111265780601f106110fb57610100808354040283529160200191611126565b820191906000526020600020905b81548152906001019060200180831161110957829003601f168201915b505050505081565b6000611138610c50565b8210611179576040517f08c379a00000000000000000000000000000000000000000000000000000000081526004016111709061530d565b60405180910390fd5b6009828154811061118d5761118c614f12565b5b90600052602060002001549050919050565b601860205281600052604060002081815481106111bb57600080fd5b90600052602060002001600091509150505481565b6060600d6000838152602001908152602001600020805480602002602001604051908101604052809291908181526020016000905b828210156112b157838290600052602060002001805461122490614d2a565b80601f016020809104026020016040519081016040528092919081815260200182805461125090614d2a565b801561129d5780601f106112725761010080835404028352916020019161129d565b820191906000526020600020905b81548152906001019060200180831161128057829003601f168201915b505050505081526020019060010190611205565b505050509050919050565b600c60205281600052604060002081815481106112d857600080fd5b90600052602060002001600091509150505481565b6000806002600084815260200190815260200160002060009054906101000a900473ffffffffffffffffffffffffffffffffffffffff169050600073ffffffffffffffffffffffffffffffffffffffff168173ffffffffffffffffffffffffffffffffffffffff161415611396576040517f08c379a000000000000000000000000000000000000000000000000000000000815260040161138d90615379565b60405180910390fd5b80915050919050565b60006113ab600b6125cc565b905083836018600084815260200190815260200160002091906113cf929190613dd1565b5060006113fa836040516020016113e691906154b9565b604051602081830303815290604052612aab565b905060008160405160200161140f9190615532565b604051602081830303815290604052905061145e6040518060400160405280600c81526020017f6d696e74696e672e2e2e2e2e00000000000000000000000000000000000000008152506123ad565b6114683384612c43565b6114a66040518060400160405280601581526020017f73657474696e6720746f6b656e2049442e2e2e2e2e00000000000000000000008152506123ad565b6114b08382612c61565b6114ba600b612cd5565b6114dd604051806060016040528060258152602001615e80602591398433612ceb565b7febb98688741ffa4c7589bf325de30cf7becb63de567842e1ccdb6cb949fdc82c338460405161150e929190615554565b60405180910390a1505050505050565b60008073ffffffffffffffffffffffffffffffffffffffff168273ffffffffffffffffffffffffffffffffffffffff16141561158f576040517f08c379a0000000000000000000000000000000000000000000000000000000008152600401611586906155ef565b60405180910390fd5b600360008373ffffffffffffffffffffffffffffffffffffffff1673ffffffffffffffffffffffffffffffffffffffff168152602001908152602001600020549050919050565b60138060000154905081565b60006115ee60126125cc565b905090565b6014602052816000526040600020818154811061160f57600080fd5b90600052602060002001600091509150505481565b600061163060136125cc565b905090565b60128060000154905081565b60606001805461165090614d2a565b80601f016020809104026020016040519081016040528092919081815260200182805461167c90614d2a565b80156116c95780601f1061169e576101008083540402835291602001916116c9565b820191906000526020600020905b8154815290600101906020018083116116ac57829003601f168201915b5050505050905090565b6060600c600083815260200190815260200160002080548060200260200160405190810160405280929190818152602001828054801561173257602002820191906000526020600020905b81548152602001906001019080831161171e575b50505050509050919050565b60606010600083815260200190815260200160002080548060200260200160405190810160405280929190818152602001828054801561179d57602002820191906000526020600020905b815481526020019060010190808311611789575b50505050509050919050565b6117bb6117b461250b565b8383612d8a565b5050565b6117c98282612ef7565b5050565b60168060000154905081565b6117ea6117e461250b565b836125da565b611829576040517f08c379a000000000000000000000000000000000000000000000000000000000815260040161182090614ef2565b60405180910390fd5b61183584848484612f31565b50505050565b606061184682612f8d565b9050919050565b6000611859600e6125cc565b905090565b6010602052816000526040600020818154811061187a57600080fd5b90600052602060002001600091509150505481565b6060601460008381526020019081526020016000208054806020026020016040519081016040528092919081815260200182805480156118ee57602002820191906000526020600020905b8154815260200190600101908083116118da575b50505050509050919050565b606060156000838152602001908152602001600020805480602002602001604051908101604052809291908181526020016000905b828210156119db57838290600052602060002001805461194e90614d2a565b80601f016020809104026020016040519081016040528092919081815260200182805461197a90614d2a565b80156119c75780601f1061199c576101008083540402835291602001916119c7565b820191906000526020600020905b8154815290600101906020018083116119aa57829003601f168201915b50505050508152602001906001019061192f565b505050509050919050565b60005b82829050811015611a3457611a21838383818110611a0a57611a09614f12565b5b9050602002810190611a1c919061561e565b6130a0565b8080611a2c90615681565b9150506119e9565b505050565b6060600060186000848152602001908152602001600020805480602002602001604051908101604052809291908181526020018280548015611a9a57602002820191906000526020600020905b815481526020019060010190808311611a86575b50505050509050600081600081518110611ab757611ab6614f12565b5b60200260200101519050600082600181518110611ad757611ad6614f12565b5b60200260200101519050600083600281518110611af757611af6614f12565b5b60200260200101519050600084600381518110611b1757611b16614f12565b5b60200260200101519050600085600481518110611b3757611b36614f12565b5b60200260200101519050600086600581518110611b5757611b56614f12565b5b602002602001015190506000604051602001611b72906157fa565b604051602081830303815290604052905080611cd160106000888152602001908152602001600020805480602002602001604051908101604052809291908181526020018280548015611be457602002820191906000526020600020905b815481526020019060010190808311611bd0575b505050505060116000888152602001908152602001600020805480602002602001604051908101604052809291908181526020016000905b82821015611cc8578382906000526020600020018054611c3b90614d2a565b80601f0160208091040260200160405190810160405280929190818152602001828054611c6790614d2a565b8015611cb45780601f10611c8957610100808354040283529160200191611cb4565b820191906000526020600020905b815481529060010190602001808311611c9757829003601f168201915b505050505081526020019060010190611c1c565b50505050610d93565b604051602001611ce29291906151e5565b604051602081830303815290604052905080611e4160146000868152602001908152602001600020805480602002602001604051908101604052809291908181526020018280548015611d5457602002820191906000526020600020905b815481526020019060010190808311611d40575b505050505060156000868152602001908152602001600020805480602002602001604051908101604052809291908181526020016000905b82821015611e38578382906000526020600020018054611dab90614d2a565b80601f0160208091040260200160405190810160405280929190818152602001828054611dd790614d2a565b8015611e245780601f10611df957610100808354040283529160200191611e24565b820191906000526020600020905b815481529060010190602001808311611e0757829003601f168201915b505050505081526020019060010190611d8c565b50505050610d93565b604051602001611e529291906151e5565b604051602081830303815290604052905080611fb1600c60008a8152602001908152602001600020805480602002602001604051908101604052809291908181526020018280548015611ec457602002820191906000526020600020905b815481526020019060010190808311611eb0575b5050505050600d60008a8152602001908152602001600020805480602002602001604051908101604052809291908181526020016000905b82821015611fa8578382906000526020600020018054611f1b90614d2a565b80601f0160208091040260200160405190810160405280929190818152602001828054611f4790614d2a565b8015611f945780601f10611f6957610100808354040283529160200191611f94565b820191906000526020600020905b815481529060010190602001808311611f7757829003601f168201915b505050505081526020019060010190611efc565b50505050610d93565b604051602001611fc29291906151e5565b6040516020818303038152906040529050806040518060400160405280600681526020017f3c2f7376673e000000000000000000000000000000000000000000000000000081525060405160200161201b9291906151e5565b60405160208183030381529060405290508098505050505050505050919050565b610100828290506011600061205160136125cc565b81526020019081526020016000208054905061206d9190614f70565b11156120ae576040517f08c379a00000000000000000000000000000000000000000000000000000000081526004016120a59061588c565b60405180910390fd5b60005b82829050811015612106576120f36120c960136125cc565b8484848181106120dc576120db614f12565b5b90506020028101906120ee91906158ac565b613179565b80806120fe90615681565b9150506120b1565b506121116013612cd5565b5050565b606060116000838152602001908152602001600020805480602002602001604051908101604052809291908181526020016000905b828210156121f657838290600052602060002001805461216990614d2a565b80601f016020809104026020016040519081016040528092919081815260200182805461219590614d2a565b80156121e25780601f106121b7576101008083540402835291602001916121e2565b820191906000526020600020905b8154815290600101906020018083116121c557829003601f168201915b50505050508152602001906001019061214a565b505050509050919050565b60005b8282905081101561224f5761223c83838381811061222557612224614f12565b5b9050602002810190612237919061561e565b6131cd565b808061224790615681565b915050612204565b505050565b600f8060000154905081565b6011602052816000526040600020818154811061227c57600080fd5b9060005260206000200160009150915050805461229890614d2a565b80601f01602080910402602001604051908101604052809291908181526020018280546122c490614d2a565b80156123115780601f106122e657610100808354040283529160200191612311565b820191906000526020600020905b8154815290600101906020018083116122f457829003601f168201915b505050505081565b6000600560008473ffffffffffffffffffffffffffffffffffffffff1673ffffffffffffffffffffffffffffffffffffffff16815260200190815260200160002060008373ffffffffffffffffffffffffffffffffffffffff1673ffffffffffffffffffffffffffffffffffffffff16815260200190815260200160002060009054906101000a900460ff16905092915050565b612443816040516024016123c191906140af565b6040516020818303038152906040527f41304fac000000000000000000000000000000000000000000000000000000007bffffffffffffffffffffffffffffffffffffffffffffffffffffffff19166020820180517bffffffffffffffffffffffffffffffffffffffffffffffffffffffff83818316178352505050506132a6565b50565b60007f780e9d63000000000000000000000000000000000000000000000000000000007bffffffffffffffffffffffffffffffffffffffffffffffffffffffff1916827bffffffffffffffffffffffffffffffffffffffffffffffffffffffff191614806124b957506124b8826132cf565b5b9050919050565b6124c9816133b1565b612508576040517f08c379a00000000000000000000000000000000000000000000000000000000081526004016124ff90615379565b60405180910390fd5b50565b600033905090565b816004600083815260200190815260200160002060006101000a81548173ffffffffffffffffffffffffffffffffffffffff021916908373ffffffffffffffffffffffffffffffffffffffff160217905550808273ffffffffffffffffffffffffffffffffffffffff16612586836112ed565b73ffffffffffffffffffffffffffffffffffffffff167f8c5be1e5ebec7d5bd14f71427d1e84f3dd0314c0f7b2291e5b200ac8c7c3b92560405160405180910390a45050565b600081600001549050919050565b6000806125e6836112ed565b90508073ffffffffffffffffffffffffffffffffffffffff168473ffffffffffffffffffffffffffffffffffffffff16148061262857506126278185612319565b5b8061266657508373ffffffffffffffffffffffffffffffffffffffff1661264e84610ae1565b73ffffffffffffffffffffffffffffffffffffffff16145b91505092915050565b8273ffffffffffffffffffffffffffffffffffffffff1661268f826112ed565b73ffffffffffffffffffffffffffffffffffffffff16146126e5576040517f08c379a00000000000000000000000000000000000000000000000000000000081526004016126dc90615981565b60405180910390fd5b600073ffffffffffffffffffffffffffffffffffffffff168273ffffffffffffffffffffffffffffffffffffffff161415612755576040517f08c379a000000000000000000000000000000000000000000000000000000000815260040161274c90615a13565b60405180910390fd5b61276083838361341d565b61276b600082612513565b6001600360008573ffffffffffffffffffffffffffffffffffffffff1673ffffffffffffffffffffffffffffffffffffffff16815260200190815260200160002060008282546127bb9190615a33565b925050819055506001600360008473ffffffffffffffffffffffffffffffffffffffff1673ffffffffffffffffffffffffffffffffffffffff16815260200190815260200160002060008282546128129190614f70565b92505081905550816002600083815260200190815260200160002060006101000a81548173ffffffffffffffffffffffffffffffffffffffff021916908373ffffffffffffffffffffffffffffffffffffffff160217905550808273ffffffffffffffffffffffffffffffffffffffff168473ffffffffffffffffffffffffffffffffffffffff167fddf252ad1be2c89b69c2b068fc378daa952ba7f163c4a11628f55a4df523b3ef60405160405180910390a46128d183838361342d565b505050565b6060600082141561291e576040518060400160405280600181526020017f30000000000000000000000000000000000000000000000000000000000000008152509050612a32565b600082905060005b6000821461295057808061293990615681565b915050600a826129499190615a96565b9150612926565b60008167ffffffffffffffff81111561296c5761296b6142be565b5b6040519080825280601f01601f19166020018201604052801561299e5781602001600182028036833780820191505090505b5090505b60008514612a2b576001826129b79190615a33565b9150600a856129c69190615ac7565b60306129d29190614f70565b60f81b8183815181106129e8576129e7614f12565b5b60200101907effffffffffffffffffffffffffffffffffffffffffffffffffffffffffffff1916908160001a905350600a85612a249190615a96565b94506129a2565b8093505050505b919050565b818160106000612a4760126125cc565b81526020019081526020016000209190612a62929190613dd1565b50612a6d6012612cd5565b5050565b8181600c6000612a81600e6125cc565b81526020019081526020016000209190612a9c929190613dd1565b50612aa7600e612cd5565b5050565b60606000825190506000811415612ad45760405180602001604052806000815250915050612c3e565b60006003600283612ae59190614f70565b612aef9190615a96565b6004612afb9190614fc6565b90506000602082612b0c9190614f70565b67ffffffffffffffff811115612b2557612b246142be565b5b6040519080825280601f01601f191660200182016040528015612b575781602001600182028036833780820191505090505b5090506000604051806060016040528060408152602001615ea5604091399050600181016020830160005b86811015612bfb5760038101905062ffffff818a015116603f8160121c168401518060081b905060ff603f83600c1c1686015116810190508060081b905060ff603f8360061c1686015116810190508060081b905060ff603f831686015116810190508060e01b90508084526004840193505050612b82565b506003860660018114612c155760028114612c2557612c30565b613d3d60f01b6002830352612c30565b603d60f81b60018303525b508484525050819450505050505b919050565b612c5d828260405180602001604052806000815250613432565b5050565b612c6a826133b1565b612ca9576040517f08c379a0000000000000000000000000000000000000000000000000000000008152600401612ca090615b6a565b60405180910390fd5b80600660008481526020019081526020016000209080519060200190612cd0929190613e1e565b505050565b6001816000016000828254019250508190555050565b612d85838383604051602401612d0393929190615b8a565b6040516020818303038152906040527f1c7ec448000000000000000000000000000000000000000000000000000000007bffffffffffffffffffffffffffffffffffffffffffffffffffffffff19166020820180517bffffffffffffffffffffffffffffffffffffffffffffffffffffffff83818316178352505050506132a6565b505050565b8173ffffffffffffffffffffffffffffffffffffffff168373ffffffffffffffffffffffffffffffffffffffff161415612df9576040517f08c379a0000000000000000000000000000000000000000000000000000000008152600401612df090615c14565b60405180910390fd5b80600560008573ffffffffffffffffffffffffffffffffffffffff1673ffffffffffffffffffffffffffffffffffffffff16815260200190815260200160002060008473ffffffffffffffffffffffffffffffffffffffff1673ffffffffffffffffffffffffffffffffffffffff16815260200190815260200160002060006101000a81548160ff0219169083151502179055508173ffffffffffffffffffffffffffffffffffffffff168373ffffffffffffffffffffffffffffffffffffffff167f17307eab39ab6107e8899845ad3d59bd9653f200f220920489ca2b5937696c3183604051612eea9190613ffb565b60405180910390a3505050565b818160146000612f0760166125cc565b81526020019081526020016000209190612f22929190613dd1565b50612f2d6016612cd5565b5050565b612f3c84848461266f565b612f488484848461348d565b612f87576040517f08c379a0000000000000000000000000000000000000000000000000000000008152600401612f7e90615ca6565b60405180910390fd5b50505050565b6060612f98826124c0565b6000600660008481526020019081526020016000208054612fb890614d2a565b80601f0160208091040260200160405190810160405280929190818152602001828054612fe490614d2a565b80156130315780601f1061300657610100808354040283529160200191613031565b820191906000526020600020905b81548152906001019060200180831161301457829003601f168201915b505050505090506000613042613624565b905060008151141561305857819250505061309b565b60008251111561308d578082604051602001613075929190615cc6565b6040516020818303038152906040529250505061309b565b6130968461363b565b925050505b919050565b61010082829050601560006130b560176125cc565b8152602001908152602001600020805490506130d19190614f70565b1115613112576040517f08c379a00000000000000000000000000000000000000000000000000000000081526004016131099061588c565b60405180910390fd5b60005b8282905081101561316a5761315761312d60176125cc565b8484848181106131405761313f614f12565b5b905060200281019061315291906158ac565b6136a3565b808061316290615681565b915050613115565b506131756017612cd5565b5050565b601160008481526020019081526020016000208282909180600181540180825580915050600190039060005260206000200160009091929091929091929091925091906131c7929190613ea4565b50505050565b61010082829050600d60006131e2600f6125cc565b8152602001908152602001600020805490506131fe9190614f70565b111561323f576040517f08c379a00000000000000000000000000000000000000000000000000000000081526004016132369061588c565b60405180910390fd5b60005b828290508110156132975761328461325a600f6125cc565b84848481811061326d5761326c614f12565b5b905060200281019061327f91906158ac565b6136f7565b808061328f90615681565b915050613242565b506132a2600f612cd5565b5050565b60008151905060006a636f6e736f6c652e6c6f679050602083016000808483855afa5050505050565b60007f80ac58cd000000000000000000000000000000000000000000000000000000007bffffffffffffffffffffffffffffffffffffffffffffffffffffffff1916827bffffffffffffffffffffffffffffffffffffffffffffffffffffffff1916148061339a57507f5b5e139f000000000000000000000000000000000000000000000000000000007bffffffffffffffffffffffffffffffffffffffffffffffffffffffff1916827bffffffffffffffffffffffffffffffffffffffffffffffffffffffff1916145b806133aa57506133a98261374b565b5b9050919050565b60008073ffffffffffffffffffffffffffffffffffffffff166002600084815260200190815260200160002060009054906101000a900473ffffffffffffffffffffffffffffffffffffffff1673ffffffffffffffffffffffffffffffffffffffff1614159050919050565b6134288383836137b5565b505050565b505050565b61343c83836138c9565b613449600084848461348d565b613488576040517f08c379a000000000000000000000000000000000000000000000000000000000815260040161347f90615ca6565b60405180910390fd5b505050565b60006134ae8473ffffffffffffffffffffffffffffffffffffffff16613aa3565b15613617578373ffffffffffffffffffffffffffffffffffffffff1663150b7a026134d761250b565b8786866040518563ffffffff1660e01b81526004016134f99493929190615cea565b602060405180830381600087803b15801561351357600080fd5b505af192505050801561354457506040513d601f19601f820116820180604052508101906135419190615d4b565b60015b6135c7573d8060008114613574576040519150601f19603f3d011682016040523d82523d6000602084013e613579565b606091505b506000815114156135bf576040517f08c379a00000000000000000000000000000000000000000000000000000000081526004016135b690615ca6565b60405180910390fd5b805181602001fd5b63150b7a0260e01b7bffffffffffffffffffffffffffffffffffffffffffffffffffffffff1916817bffffffffffffffffffffffffffffffffffffffffffffffffffffffff19161491505061361c565b600190505b949350505050565b606060405180602001604052806000815250905090565b6060613646826124c0565b6000613650613624565b90506000815111613670576040518060200160405280600081525061369b565b8061367a846128d6565b60405160200161368b929190615cc6565b6040516020818303038152906040525b915050919050565b601560008481526020019081526020016000208282909180600181540180825580915050600190039060005260206000200160009091929091929091929091925091906136f1929190613ea4565b50505050565b600d6000848152602001908152602001600020828290918060018154018082558091505060019003906000526020600020016000909192909192909192909192509190613745929190613ea4565b50505050565b60007f01ffc9a7000000000000000000000000000000000000000000000000000000007bffffffffffffffffffffffffffffffffffffffffffffffffffffffff1916827bffffffffffffffffffffffffffffffffffffffffffffffffffffffff1916149050919050565b6137c0838383613ac6565b600073ffffffffffffffffffffffffffffffffffffffff168373ffffffffffffffffffffffffffffffffffffffff161415613803576137fe81613acb565b613842565b8173ffffffffffffffffffffffffffffffffffffffff168373ffffffffffffffffffffffffffffffffffffffff1614613841576138408382613b14565b5b5b600073ffffffffffffffffffffffffffffffffffffffff168273ffffffffffffffffffffffffffffffffffffffff1614156138855761388081613c81565b6138c4565b8273ffffffffffffffffffffffffffffffffffffffff168273ffffffffffffffffffffffffffffffffffffffff16146138c3576138c28282613d52565b5b5b505050565b600073ffffffffffffffffffffffffffffffffffffffff168273ffffffffffffffffffffffffffffffffffffffff161415613939576040517f08c379a000000000000000000000000000000000000000000000000000000000815260040161393090615dc4565b60405180910390fd5b613942816133b1565b15613982576040517f08c379a000000000000000000000000000000000000000000000000000000000815260040161397990615e30565b60405180910390fd5b61398e6000838361341d565b6001600360008473ffffffffffffffffffffffffffffffffffffffff1673ffffffffffffffffffffffffffffffffffffffff16815260200190815260200160002060008282546139de9190614f70565b92505081905550816002600083815260200190815260200160002060006101000a81548173ffffffffffffffffffffffffffffffffffffffff021916908373ffffffffffffffffffffffffffffffffffffffff160217905550808273ffffffffffffffffffffffffffffffffffffffff16600073ffffffffffffffffffffffffffffffffffffffff167fddf252ad1be2c89b69c2b068fc378daa952ba7f163c4a11628f55a4df523b3ef60405160405180910390a4613a9f6000838361342d565b5050565b6000808273ffffffffffffffffffffffffffffffffffffffff163b119050919050565b505050565b600980549050600a600083815260200190815260200160002081905550600981908060018154018082558091505060019003906000526020600020016000909190919091505550565b60006001613b218461151e565b613b2b9190615a33565b9050600060086000848152602001908152602001600020549050818114613c10576000600760008673ffffffffffffffffffffffffffffffffffffffff1673ffffffffffffffffffffffffffffffffffffffff168152602001908152602001600020600084815260200190815260200160002054905080600760008773ffffffffffffffffffffffffffffffffffffffff1673ffffffffffffffffffffffffffffffffffffffff168152602001908152602001600020600084815260200190815260200160002081905550816008600083815260200190815260200160002081905550505b6008600084815260200190815260200160002060009055600760008573ffffffffffffffffffffffffffffffffffffffff1673ffffffffffffffffffffffffffffffffffffffff16815260200190815260200160002060008381526020019081526020016000206000905550505050565b60006001600980549050613c959190615a33565b90506000600a6000848152602001908152602001600020549050600060098381548110613cc557613cc4614f12565b5b906000526020600020015490508060098381548110613ce757613ce6614f12565b5b906000526020600020018190555081600a600083815260200190815260200160002081905550600a6000858152602001908152602001600020600090556009805480613d3657613d35615e50565b5b6001900381819060005260206000200160009055905550505050565b6000613d5d8361151e565b905081600760008573ffffffffffffffffffffffffffffffffffffffff1673ffffffffffffffffffffffffffffffffffffffff168152602001908152602001600020600083815260200190815260200160002081905550806008600084815260200190815260200160002081905550505050565b828054828255906000526020600020908101928215613e0d579160200282015b82811115613e0c578235825591602001919060010190613df1565b5b509050613e1a9190613f2a565b5090565b828054613e2a90614d2a565b90600052602060002090601f016020900481019282613e4c5760008555613e93565b82601f10613e6557805160ff1916838001178555613e93565b82800160010185558215613e93579182015b82811115613e92578251825591602001919060010190613e77565b5b509050613ea09190613f2a565b5090565b828054613eb090614d2a565b90600052602060002090601f016020900481019282613ed25760008555613f19565b82601f10613eeb57803560ff1916838001178555613f19565b82800160010185558215613f19579182015b82811115613f18578235825591602001919060010190613efd565b5b509050613f269190613f2a565b5090565b5b80821115613f43576000816000905550600101613f2b565b5090565b6000604051905090565b600080fd5b600080fd5b60007fffffffff0000000000000000000000000000000000000000000000000000000082169050919050565b613f9081613f5b565b8114613f9b57600080fd5b50565b600081359050613fad81613f87565b92915050565b600060208284031215613fc957613fc8613f51565b5b6000613fd784828501613f9e565b91505092915050565b60008115159050919050565b613ff581613fe0565b82525050565b60006020820190506140106000830184613fec565b92915050565b600081519050919050565b600082825260208201905092915050565b60005b83811015614050578082015181840152602081019050614035565b8381111561405f576000848401525b50505050565b6000601f19601f8301169050919050565b600061408182614016565b61408b8185614021565b935061409b818560208601614032565b6140a481614065565b840191505092915050565b600060208201905081810360008301526140c98184614076565b905092915050565b6000819050919050565b6140e4816140d1565b81146140ef57600080fd5b50565b600081359050614101816140db565b92915050565b60006020828403121561411d5761411c613f51565b5b600061412b848285016140f2565b91505092915050565b600073ffffffffffffffffffffffffffffffffffffffff82169050919050565b600061415f82614134565b9050919050565b61416f81614154565b82525050565b600060208201905061418a6000830184614166565b92915050565b61419981614154565b81146141a457600080fd5b50565b6000813590506141b681614190565b92915050565b600080604083850312156141d3576141d2613f51565b5b60006141e1858286016141a7565b92505060206141f2858286016140f2565b9150509250929050565b614205816140d1565b82525050565b600060208201905061422060008301846141fc565b92915050565b6000806040838503121561423d5761423c613f51565b5b600061424b858286016140f2565b925050602061425c858286016140f2565b9150509250929050565b60008060006060848603121561427f5761427e613f51565b5b600061428d868287016141a7565b935050602061429e868287016141a7565b92505060406142af868287016140f2565b9150509250925092565b600080fd5b7f4e487b7100000000000000000000000000000000000000000000000000000000600052604160045260246000fd5b6142f682614065565b810181811067ffffffffffffffff82111715614315576143146142be565b5b80604052505050565b6000614328613f47565b905061433482826142ed565b919050565b600067ffffffffffffffff821115614354576143536142be565b5b602082029050602081019050919050565b600080fd5b600061437d61437884614339565b61431e565b905080838252602082019050602084028301858111156143a05761439f614365565b5b835b818110156143c957806143b588826140f2565b8452602084019350506020810190506143a2565b5050509392505050565b600082601f8301126143e8576143e76142b9565b5b81356143f884826020860161436a565b91505092915050565b600067ffffffffffffffff82111561441c5761441b6142be565b5b602082029050602081019050919050565b600080fd5b600067ffffffffffffffff82111561444d5761444c6142be565b5b61445682614065565b9050602081019050919050565b82818337600083830152505050565b600061448561448084614432565b61431e565b9050828152602081018484840111156144a1576144a061442d565b5b6144ac848285614463565b509392505050565b600082601f8301126144c9576144c86142b9565b5b81356144d9848260208601614472565b91505092915050565b60006144f56144f084614401565b61431e565b9050808382526020820190506020840283018581111561451857614517614365565b5b835b8181101561455f57803567ffffffffffffffff81111561453d5761453c6142b9565b5b80860161454a89826144b4565b8552602085019450505060208101905061451a565b5050509392505050565b600082601f83011261457e5761457d6142b9565b5b813561458e8482602086016144e2565b91505092915050565b600080604083850312156145ae576145ad613f51565b5b600083013567ffffffffffffffff8111156145cc576145cb613f56565b5b6145d8858286016143d3565b925050602083013567ffffffffffffffff8111156145f9576145f8613f56565b5b61460585828601614569565b9150509250929050565b600081519050919050565b600082825260208201905092915050565b60006146368261460f565b614640818561461a565b9350614650818560208601614032565b61465981614065565b840191505092915050565b6000602082019050818103600083015261467e818461462b565b905092915050565b600080fd5b60008083601f8401126146a1576146a06142b9565b5b8235905067ffffffffffffffff8111156146be576146bd614686565b5b6020830191508360208202830111156146da576146d9614365565b5b9250929050565b600080602083850312156146f8576146f7613f51565b5b600083013567ffffffffffffffff81111561471657614715613f56565b5b6147228582860161468b565b92509250509250929050565b600081519050919050565b600082825260208201905092915050565b6000819050602082019050919050565b600082825260208201905092915050565b600061477682614016565b614780818561475a565b9350614790818560208601614032565b61479981614065565b840191505092915050565b60006147b0838361476b565b905092915050565b6000602082019050919050565b60006147d08261472e565b6147da8185614739565b9350836020820285016147ec8561474a565b8060005b85811015614828578484038952815161480985826147a4565b9450614814836147b8565b925060208a019950506001810190506147f0565b50829750879550505050505092915050565b6000602082019050818103600083015261485481846147c5565b905092915050565b60008060006040848603121561487557614874613f51565b5b600084013567ffffffffffffffff81111561489357614892613f56565b5b61489f8682870161468b565b9350935050602084013567ffffffffffffffff8111156148c2576148c1613f56565b5b6148ce868287016144b4565b9150509250925092565b6000602082840312156148ee576148ed613f51565b5b60006148fc848285016141a7565b91505092915050565b600081519050919050565b600082825260208201905092915050565b6000819050602082019050919050565b61493a816140d1565b82525050565b600061494c8383614931565b60208301905092915050565b6000602082019050919050565b600061497082614905565b61497a8185614910565b935061498583614921565b8060005b838110156149b657815161499d8882614940565b97506149a883614958565b925050600181019050614989565b5085935050505092915050565b600060208201905081810360008301526149dd8184614965565b905092915050565b6149ee81613fe0565b81146149f957600080fd5b50565b600081359050614a0b816149e5565b92915050565b60008060408385031215614a2857614a27613f51565b5b6000614a36858286016141a7565b9250506020614a47858286016149fc565b9150509250929050565b600067ffffffffffffffff821115614a6c57614a6b6142be565b5b614a7582614065565b9050602081019050919050565b6000614a95614a9084614a51565b61431e565b905082815260208101848484011115614ab157614ab061442d565b5b614abc848285614463565b509392505050565b600082601f830112614ad957614ad86142b9565b5b8135614ae9848260208601614a82565b91505092915050565b60008060008060808587031215614b0c57614b0b613f51565b5b6000614b1a878288016141a7565b9450506020614b2b878288016141a7565b9350506040614b3c878288016140f2565b925050606085013567ffffffffffffffff811115614b5d57614b5c613f56565b5b614b6987828801614ac4565b91505092959194509250565b60008083601f840112614b8b57614b8a6142b9565b5b8235905067ffffffffffffffff811115614ba857614ba7614686565b5b602083019150836020820283011115614bc457614bc3614365565b5b9250929050565b60008060208385031215614be257614be1613f51565b5b600083013567ffffffffffffffff811115614c0057614bff613f56565b5b614c0c85828601614b75565b92509250509250929050565b60008083601f840112614c2e57614c2d6142b9565b5b8235905067ffffffffffffffff811115614c4b57614c4a614686565b5b602083019150836020820283011115614c6757614c66614365565b5b9250929050565b60008060208385031215614c8557614c84613f51565b5b600083013567ffffffffffffffff811115614ca357614ca2613f56565b5b614caf85828601614c18565b92509250509250929050565b60008060408385031215614cd257614cd1613f51565b5b6000614ce0858286016141a7565b9250506020614cf1858286016141a7565b9150509250929050565b7f4e487b7100000000000000000000000000000000000000000000000000000000600052602260045260246000fd5b60006002820490506001821680614d4257607f821691505b60208210811415614d5657614d55614cfb565b5b50919050565b7f4552433732313a20617070726f76616c20746f2063757272656e74206f776e6560008201527f7200000000000000000000000000000000000000000000000000000000000000602082015250565b6000614db8602183614021565b9150614dc382614d5c565b604082019050919050565b60006020820190508181036000830152614de781614dab565b9050919050565b7f4552433732313a20617070726f76652063616c6c6572206973206e6f7420746f60008201527f6b656e206f776e6572206e6f7220617070726f76656420666f7220616c6c0000602082015250565b6000614e4a603e83614021565b9150614e5582614dee565b604082019050919050565b60006020820190508181036000830152614e7981614e3d565b9050919050565b7f4552433732313a2063616c6c6572206973206e6f7420746f6b656e206f776e6560008201527f72206e6f7220617070726f766564000000000000000000000000000000000000602082015250565b6000614edc602e83614021565b9150614ee782614e80565b604082019050919050565b60006020820190508181036000830152614f0b81614ecf565b9050919050565b7f4e487b7100000000000000000000000000000000000000000000000000000000600052603260045260246000fd5b7f4e487b7100000000000000000000000000000000000000000000000000000000600052601160045260246000fd5b6000614f7b826140d1565b9150614f86836140d1565b9250827fffffffffffffffffffffffffffffffffffffffffffffffffffffffffffffffff03821115614fbb57614fba614f41565b5b828201905092915050565b6000614fd1826140d1565b9150614fdc836140d1565b9250817fffffffffffffffffffffffffffffffffffffffffffffffffffffffffffffffff048311821515161561501557615014614f41565b5b828202905092915050565b7f3c726563742077696474683d2200000000000000000000000000000000000000815250565b600081905092915050565b600061505c8261460f565b6150668185615046565b9350615076818560208601614032565b80840191505092915050565b7f22206865696768743d2200000000000000000000000000000000000000000000815250565b7f2220783d22000000000000000000000000000000000000000000000000000000815250565b7f2220793d22000000000000000000000000000000000000000000000000000000815250565b7f222066696c6c3d22000000000000000000000000000000000000000000000000815250565b7f222f3e0000000000000000000000000000000000000000000000000000000000815250565b600061514b82615020565b600d8201915061515b8288615051565b915061516682615082565b600a820191506151768287615051565b9150615181826150a8565b6005820191506151918286615051565b915061519c826150ce565b6005820191506151ac8285615051565b91506151b7826150f4565b6008820191506151c78284615051565b91506151d28261511a565b6003820191508190509695505050505050565b60006151f18285615051565b91506151fd8284615051565b91508190509392505050565b7f455243373231456e756d657261626c653a206f776e657220696e646578206f7560008201527f74206f6620626f756e6473000000000000000000000000000000000000000000602082015250565b6000615265602b83614021565b915061527082615209565b604082019050919050565b6000602082019050818103600083015261529481615258565b9050919050565b7f455243373231456e756d657261626c653a20676c6f62616c20696e646578206f60008201527f7574206f6620626f756e64730000000000000000000000000000000000000000602082015250565b60006152f7602c83614021565b91506153028261529b565b604082019050919050565b60006020820190508181036000830152615326816152ea565b9050919050565b7f4552433732313a20696e76616c696420746f6b656e2049440000000000000000600082015250565b6000615363601883614021565b915061536e8261532d565b602082019050919050565b6000602082019050818103600083015261539281615356565b9050919050565b600081905092915050565b7f7b226e616d65223a20226e7963222c20226465736372697074696f6e223a202260008201527f4120686967686c79206163636c61696d656420636f6c6c656374696f6e206f6660208201527f20737175617265732e222c2022696d616765223a202200000000000000000000604082015250565b6000615426605683615399565b9150615431826153a4565b605682019050919050565b600061544782614016565b6154518185615399565b9350615461818560208601614032565b80840191505092915050565b7f227d000000000000000000000000000000000000000000000000000000000000600082015250565b60006154a3600283615399565b91506154ae8261546d565b600282019050919050565b60006154c482615419565b91506154d0828461543c565b91506154db82615496565b915081905092915050565b7f646174613a6170706c69636174696f6e2f6a736f6e3b6261736536342c000000600082015250565b600061551c601d83615399565b9150615527826154e6565b601d82019050919050565b600061553d8261550f565b9150615549828461543c565b915081905092915050565b60006040820190506155696000830185614166565b61557660208301846141fc565b9392505050565b7f4552433732313a2061646472657373207a65726f206973206e6f74206120766160008201527f6c6964206f776e65720000000000000000000000000000000000000000000000602082015250565b60006155d9602983614021565b91506155e48261557d565b604082019050919050565b60006020820190508181036000830152615608816155cc565b9050919050565b600080fd5b600080fd5b600080fd5b6000808335600160200384360303811261563b5761563a61560f565b5b80840192508235915067ffffffffffffffff82111561565d5761565c615614565b5b60208301925060208202360383131561567957615678615619565b5b509250929050565b600061568c826140d1565b91507fffffffffffffffffffffffffffffffffffffffffffffffffffffffffffffffff8214156156bf576156be614f41565b5b600182019050919050565b7f3c7376672077696474683d2237383022206865696768743d223130303022207660008201527f696577626f78203d22302c302c3738302c313030302220786d6c6e733d22687460208201527f74703a2f2f7777772e77332e6f72672f323030302f737667222073686170652d60408201527f72656e646572696e673d2263726973704564676573223e000000000000000000606082015250565b6000615772607783615046565b915061577d826156ca565b607782019050919050565b7f3c726563742077696474683d223130302522206865696768743d22313030252260008201527f2066696c6c3d2223666663636362222f3e000000000000000000000000000000602082015250565b60006157e4603183615046565b91506157ef82615788565b603182019050919050565b600061580582615765565b9150615810826157d7565b9150819050919050565b7f50616c65747465732063616e206f6e6c7920686f6c642032353620636f6c6f7260008201527f7300000000000000000000000000000000000000000000000000000000000000602082015250565b6000615876602183614021565b91506158818261581a565b604082019050919050565b600060208201905081810360008301526158a581615869565b9050919050565b600080833560016020038436030381126158c9576158c861560f565b5b80840192508235915067ffffffffffffffff8211156158eb576158ea615614565b5b60208301925060018202360383131561590757615906615619565b5b509250929050565b7f4552433732313a207472616e736665722066726f6d20696e636f72726563742060008201527f6f776e6572000000000000000000000000000000000000000000000000000000602082015250565b600061596b602583614021565b91506159768261590f565b604082019050919050565b6000602082019050818103600083015261599a8161595e565b9050919050565b7f4552433732313a207472616e7366657220746f20746865207a65726f2061646460008201527f7265737300000000000000000000000000000000000000000000000000000000602082015250565b60006159fd602483614021565b9150615a08826159a1565b604082019050919050565b60006020820190508181036000830152615a2c816159f0565b9050919050565b6000615a3e826140d1565b9150615a49836140d1565b925082821015615a5c57615a5b614f41565b5b828203905092915050565b7f4e487b7100000000000000000000000000000000000000000000000000000000600052601260045260246000fd5b6000615aa1826140d1565b9150615aac836140d1565b925082615abc57615abb615a67565b5b828204905092915050565b6000615ad2826140d1565b9150615add836140d1565b925082615aed57615aec615a67565b5b828206905092915050565b7f45524337323155524953746f726167653a2055524920736574206f66206e6f6e60008201527f6578697374656e7420746f6b656e000000000000000000000000000000000000602082015250565b6000615b54602e83614021565b9150615b5f82615af8565b604082019050919050565b60006020820190508181036000830152615b8381615b47565b9050919050565b60006060820190508181036000830152615ba48186614076565b9050615bb360208301856141fc565b615bc06040830184614166565b949350505050565b7f4552433732313a20617070726f766520746f2063616c6c657200000000000000600082015250565b6000615bfe601983614021565b9150615c0982615bc8565b602082019050919050565b60006020820190508181036000830152615c2d81615bf1565b9050919050565b7f4552433732313a207472616e7366657220746f206e6f6e20455243373231526560008201527f63656976657220696d706c656d656e7465720000000000000000000000000000602082015250565b6000615c90603283614021565b9150615c9b82615c34565b604082019050919050565b60006020820190508181036000830152615cbf81615c83565b9050919050565b6000615cd2828561543c565b9150615cde828461543c565b91508190509392505050565b6000608082019050615cff6000830187614166565b615d0c6020830186614166565b615d1960408301856141fc565b8181036060830152615d2b818461462b565b905095945050505050565b600081519050615d4581613f87565b92915050565b600060208284031215615d6157615d60613f51565b5b6000615d6f84828501615d36565b91505092915050565b7f4552433732313a206d696e7420746f20746865207a65726f2061646472657373600082015250565b6000615dae602083614021565b9150615db982615d78565b602082019050919050565b60006020820190508181036000830152615ddd81615da1565b9050919050565b7f4552433732313a20746f6b656e20616c7265616479206d696e74656400000000600082015250565b6000615e1a601c83614021565b9150615e2582615de4565b602082019050919050565b60006020820190508181036000830152615e4981615e0d565b9050919050565b7f4e487b7100000000000000000000000000000000000000000000000000000000600052603160045260246000fdfe416e204e465420772f20494420257320686173206265656e206d696e74656420746f2025734142434445464748494a4b4c4d4e4f505152535455565758595a6162636465666768696a6b6c6d6e6f707172737475767778797a303132333435363738392b2fa26469706673582212200af8953b40116be400634734a28e68c7d44008e288056f06d2d62116196e612664736f6c63430008090033",
  "linkReferences": {},
  "deployedLinkReferences": {}
}