{
  "_format": "hh-sol-artifact-1",
  "contractName": "NYCSeeder",
  "sourceName": "contracts/NYCSeeder.sol",
  "abi": [
    {
      "inputs": [
        {
          "internalType": "contract INYCDescriptor",
          "name": "descriptor",
          "type": "address"
        }
      ],
      "name": "generateSeed",
      "outputs": [
        {
          "internalType": "uint48[6]",
          "name": "",
          "type": "uint48[6]"
        }
      ],
      "stateMutability": "view",
      "type": "function"
    }
  ],
  "bytecode": "0x608060405234801561001057600080fd5b5061080f806100206000396000f3fe608060405234801561001057600080fd5b506004361061002b5760003560e01c8063d6b0ad6214610030575b600080fd5b61004a600480360381019061004591906105c4565b610060565b60405161005791906106ae565b60405180910390f35b61006861052d565b60008273ffffffffffffffffffffffffffffffffffffffff1663780410436040518163ffffffff1660e01b815260040160206040518083038186803b1580156100b057600080fd5b505afa1580156100c4573d6000803e3d6000fd5b505050506040513d601f19601f820116820180604052508101906100e891906106ff565b905060008373ffffffffffffffffffffffffffffffffffffffff166323d8bcb76040518163ffffffff1660e01b815260040160206040518083038186803b15801561013257600080fd5b505afa158015610146573d6000803e3d6000fd5b505050506040513d601f19601f8201168201806040525081019061016a91906106ff565b905060008473ffffffffffffffffffffffffffffffffffffffff1663cc2aa0916040518163ffffffff1660e01b815260040160206040518083038186803b1580156101b457600080fd5b505afa1580156101c8573d6000803e3d6000fd5b505050506040513d601f19601f820116820180604052508101906101ec91906106ff565b905060008573ffffffffffffffffffffffffffffffffffffffff166389b73e1c6040518163ffffffff1660e01b815260040160206040518083038186803b15801561023657600080fd5b505afa15801561024a573d6000803e3d6000fd5b505050506040513d601f19601f8201168201806040525081019061026e91906106ff565b905060008673ffffffffffffffffffffffffffffffffffffffff1663334deba96040518163ffffffff1660e01b815260040160206040518083038186803b1580156102b857600080fd5b505afa1580156102cc573d6000803e3d6000fd5b505050506040513d601f19601f820116820180604052508101906102f091906106ff565b905060008773ffffffffffffffffffffffffffffffffffffffff16631389048b6040518163ffffffff1660e01b815260040160206040518083038186803b15801561033a57600080fd5b505afa15801561034e573d6000803e3d6000fd5b505050506040513d601f19601f8201168201806040525081019061037291906106ff565b905060006040518060c001604052808861038a6104fa565b610394919061075b565b65ffffffffffff168152602001856103aa6104fa565b6103b4919061075b565b65ffffffffffff168152602001876103ca6104fa565b6103d4919061075b565b65ffffffffffff168152602001846103ea6104fa565b6103f4919061075b565b65ffffffffffff1681526020018661040a6104fa565b610414919061075b565b65ffffffffffff1681526020018361042a6104fa565b610434919061075b565b65ffffffffffff16815250905060006040518060c00160405280836000015165ffffffffffff1665ffffffffffff168152602001836020015165ffffffffffff1665ffffffffffff168152602001836040015165ffffffffffff1665ffffffffffff168152602001836060015165ffffffffffff1665ffffffffffff168152602001836080015165ffffffffffff1665ffffffffffff1681526020018360a0015165ffffffffffff1665ffffffffffff1681525090508098505050505050505050919050565b6000444260405160200161050f9291906107ad565b6040516020818303038152906040528051906020012060001c905090565b6040518060c00160405280600690602082028036833780820191505090505090565b600080fd5b600073ffffffffffffffffffffffffffffffffffffffff82169050919050565b600061057f82610554565b9050919050565b600061059182610574565b9050919050565b6105a181610586565b81146105ac57600080fd5b50565b6000813590506105be81610598565b92915050565b6000602082840312156105da576105d961054f565b5b60006105e8848285016105af565b91505092915050565b600060069050919050565b600081905092915050565b6000819050919050565b600065ffffffffffff82169050919050565b61062c81610611565b82525050565b600061063e8383610623565b60208301905092915050565b6000602082019050919050565b610660816105f1565b61066a81846105fc565b925061067582610607565b8060005b838110156106a657815161068d8782610632565b96506106988361064a565b925050600181019050610679565b505050505050565b600060c0820190506106c36000830184610657565b92915050565b6000819050919050565b6106dc816106c9565b81146106e757600080fd5b50565b6000815190506106f9816106d3565b92915050565b6000602082840312156107155761071461054f565b5b6000610723848285016106ea565b91505092915050565b7f4e487b7100000000000000000000000000000000000000000000000000000000600052601260045260246000fd5b6000610766826106c9565b9150610771836106c9565b9250826107815761078061072c565b5b828206905092915050565b6000819050919050565b6107a76107a2826106c9565b61078c565b82525050565b60006107b98285610796565b6020820191506107c98284610796565b602082019150819050939250505056fea264697066735822122079f1f8bf8cebdc0c55191e8216be11a2606ed06dac222b786cd30ac20dfb8ed464736f6c63430008090033",
  "linkReferences": {},
  "deployedLinkReferences": {}
}