{
  "_format": "hh-sol-artifact-1",
  "contractName": "NYCSeeder",
  "sourceName": "contracts/NYCSeeder.sol",
  "abi": [
    {
      "inputs": [
        {
          "internalType": "contract INYCDescriptor",
          "name": "descriptor",
          "type": "address"
        }
      ],
      "name": "generateSeed",
      "outputs": [
        {
          "components": [
            {
              "internalType": "uint48",
              "name": "skin",
              "type": "uint48"
            },
            {
              "internalType": "uint48",
              "name": "skinPalette",
              "type": "uint48"
            },
            {
              "internalType": "uint48",
              "name": "jacket",
              "type": "uint48"
            },
            {
              "internalType": "uint48",
              "name": "jacketPalette",
              "type": "uint48"
            },
            {
              "internalType": "uint48",
              "name": "head",
              "type": "uint48"
            },
            {
              "internalType": "uint48",
              "name": "headPalette",
              "type": "uint48"
            }
          ],
          "internalType": "struct INYCSeeder.Seed",
          "name": "",
          "type": "tuple"
        }
      ],
      "stateMutability": "nonpayable",
      "type": "function"
    },
    {
      "inputs": [
        {
          "internalType": "address",
          "name": "",
          "type": "address"
        }
      ],
      "name": "seeds",
      "outputs": [
        {
          "internalType": "uint48",
          "name": "skin",
          "type": "uint48"
        },
        {
          "internalType": "uint48",
          "name": "skinPalette",
          "type": "uint48"
        },
        {
          "internalType": "uint48",
          "name": "jacket",
          "type": "uint48"
        },
        {
          "internalType": "uint48",
          "name": "jacketPalette",
          "type": "uint48"
        },
        {
          "internalType": "uint48",
          "name": "head",
          "type": "uint48"
        },
        {
          "internalType": "uint48",
          "name": "headPalette",
          "type": "uint48"
        }
      ],
      "stateMutability": "view",
      "type": "function"
    }
  ],
  "bytecode": "0x608060405234801561001057600080fd5b50610a7d806100206000396000f3fe608060405234801561001057600080fd5b50600436106100365760003560e01c806348d0528a1461003b578063d6b0ad6214610070575b600080fd5b61005560048036038101906100509190610778565b6100a0565b604051610067969594939291906107c6565b60405180910390f35b61008a60048036038101906100859190610865565b610148565b604051610097919061091c565b60405180910390f35b60006020528060005260406000206000915090508060000160009054906101000a900465ffffffffffff16908060000160069054906101000a900465ffffffffffff169080600001600c9054906101000a900465ffffffffffff16908060000160129054906101000a900465ffffffffffff16908060000160189054906101000a900465ffffffffffff16908060010160009054906101000a900465ffffffffffff16905086565b6101506106af565b60008273ffffffffffffffffffffffffffffffffffffffff1663780410436040518163ffffffff1660e01b815260040160206040518083038186803b15801561019857600080fd5b505afa1580156101ac573d6000803e3d6000fd5b505050506040513d601f19601f820116820180604052508101906101d0919061096d565b905060008373ffffffffffffffffffffffffffffffffffffffff166323d8bcb76040518163ffffffff1660e01b815260040160206040518083038186803b15801561021a57600080fd5b505afa15801561022e573d6000803e3d6000fd5b505050506040513d601f19601f82011682018060405250810190610252919061096d565b905060008473ffffffffffffffffffffffffffffffffffffffff1663cc2aa0916040518163ffffffff1660e01b815260040160206040518083038186803b15801561029c57600080fd5b505afa1580156102b0573d6000803e3d6000fd5b505050506040513d601f19601f820116820180604052508101906102d4919061096d565b905060008573ffffffffffffffffffffffffffffffffffffffff166389b73e1c6040518163ffffffff1660e01b815260040160206040518083038186803b15801561031e57600080fd5b505afa158015610332573d6000803e3d6000fd5b505050506040513d601f19601f82011682018060405250810190610356919061096d565b905060008673ffffffffffffffffffffffffffffffffffffffff1663334deba96040518163ffffffff1660e01b815260040160206040518083038186803b1580156103a057600080fd5b505afa1580156103b4573d6000803e3d6000fd5b505050506040513d601f19601f820116820180604052508101906103d8919061096d565b905060008773ffffffffffffffffffffffffffffffffffffffff16631389048b6040518163ffffffff1660e01b815260040160206040518083038186803b15801561042257600080fd5b505afa158015610436573d6000803e3d6000fd5b505050506040513d601f19601f8201168201806040525081019061045a919061096d565b905060006040518060c001604052808861047261067c565b61047c91906109c9565b65ffffffffffff1681526020018561049261067c565b61049c91906109c9565b65ffffffffffff168152602001876104b261067c565b6104bc91906109c9565b65ffffffffffff168152602001846104d261067c565b6104dc91906109c9565b65ffffffffffff168152602001866104f261067c565b6104fc91906109c9565b65ffffffffffff1681526020018361051261067c565b61051c91906109c9565b65ffffffffffff168152509050806000803373ffffffffffffffffffffffffffffffffffffffff1673ffffffffffffffffffffffffffffffffffffffff16815260200190815260200160002060008201518160000160006101000a81548165ffffffffffff021916908365ffffffffffff16021790555060208201518160000160066101000a81548165ffffffffffff021916908365ffffffffffff160217905550604082015181600001600c6101000a81548165ffffffffffff021916908365ffffffffffff16021790555060608201518160000160126101000a81548165ffffffffffff021916908365ffffffffffff16021790555060808201518160000160186101000a81548165ffffffffffff021916908365ffffffffffff16021790555060a08201518160010160006101000a81548165ffffffffffff021916908365ffffffffffff16021790555090505080975050505050505050919050565b60004442604051602001610691929190610a1b565b6040516020818303038152906040528051906020012060001c905090565b6040518060c00160405280600065ffffffffffff168152602001600065ffffffffffff168152602001600065ffffffffffff168152602001600065ffffffffffff168152602001600065ffffffffffff168152602001600065ffffffffffff1681525090565b600080fd5b600073ffffffffffffffffffffffffffffffffffffffff82169050919050565b60006107458261071a565b9050919050565b6107558161073a565b811461076057600080fd5b50565b6000813590506107728161074c565b92915050565b60006020828403121561078e5761078d610715565b5b600061079c84828501610763565b91505092915050565b600065ffffffffffff82169050919050565b6107c0816107a5565b82525050565b600060c0820190506107db60008301896107b7565b6107e860208301886107b7565b6107f560408301876107b7565b61080260608301866107b7565b61080f60808301856107b7565b61081c60a08301846107b7565b979650505050505050565b60006108328261073a565b9050919050565b61084281610827565b811461084d57600080fd5b50565b60008135905061085f81610839565b92915050565b60006020828403121561087b5761087a610715565b5b600061088984828501610850565b91505092915050565b61089b816107a5565b82525050565b60c0820160008201516108b76000850182610892565b5060208201516108ca6020850182610892565b5060408201516108dd6040850182610892565b5060608201516108f06060850182610892565b5060808201516109036080850182610892565b5060a082015161091660a0850182610892565b50505050565b600060c08201905061093160008301846108a1565b92915050565b6000819050919050565b61094a81610937565b811461095557600080fd5b50565b60008151905061096781610941565b92915050565b60006020828403121561098357610982610715565b5b600061099184828501610958565b91505092915050565b7f4e487b7100000000000000000000000000000000000000000000000000000000600052601260045260246000fd5b60006109d482610937565b91506109df83610937565b9250826109ef576109ee61099a565b5b828206905092915050565b6000819050919050565b610a15610a1082610937565b6109fa565b82525050565b6000610a278285610a04565b602082019150610a378284610a04565b602082019150819050939250505056fea26469706673582212209ee923eea9a01cddfe28e39d7674c5f5146041d8544ad7342085412288ce4db164736f6c63430008090033",
  "linkReferences": {},
  "deployedLinkReferences": {}
}