{
  "_format": "hh-sol-artifact-1",
  "contractName": "NYCDescriptor",
  "sourceName": "contracts/NYCDescriptor.sol",
  "abi": [
    {
      "inputs": [],
      "stateMutability": "nonpayable",
      "type": "constructor"
    },
    {
      "anonymous": false,
      "inputs": [
        {
          "indexed": true,
          "internalType": "address",
          "name": "owner",
          "type": "address"
        },
        {
          "indexed": true,
          "internalType": "address",
          "name": "approved",
          "type": "address"
        },
        {
          "indexed": true,
          "internalType": "uint256",
          "name": "tokenId",
          "type": "uint256"
        }
      ],
      "name": "Approval",
      "type": "event"
    },
    {
      "anonymous": false,
      "inputs": [
        {
          "indexed": true,
          "internalType": "address",
          "name": "owner",
          "type": "address"
        },
        {
          "indexed": true,
          "internalType": "address",
          "name": "operator",
          "type": "address"
        },
        {
          "indexed": false,
          "internalType": "bool",
          "name": "approved",
          "type": "bool"
        }
      ],
      "name": "ApprovalForAll",
      "type": "event"
    },
    {
      "anonymous": false,
      "inputs": [
        {
          "indexed": true,
          "internalType": "address",
          "name": "from",
          "type": "address"
        },
        {
          "indexed": true,
          "internalType": "address",
          "name": "to",
          "type": "address"
        },
        {
          "indexed": true,
          "internalType": "uint256",
          "name": "tokenId",
          "type": "uint256"
        }
      ],
      "name": "Transfer",
      "type": "event"
    },
    {
      "inputs": [
        {
          "internalType": "uint256",
          "name": "",
          "type": "uint256"
        },
        {
          "internalType": "uint256",
          "name": "",
          "type": "uint256"
        }
      ],
      "name": "NFTtoRLEindex",
      "outputs": [
        {
          "internalType": "uint256",
          "name": "",
          "type": "uint256"
        }
      ],
      "stateMutability": "view",
      "type": "function"
    },
    {
      "inputs": [
        {
          "internalType": "uint256",
          "name": "_id",
          "type": "uint256"
        }
      ],
      "name": "RLEtoSVGMain",
      "outputs": [
        {
          "internalType": "string",
          "name": "",
          "type": "string"
        }
      ],
      "stateMutability": "view",
      "type": "function"
    },
    {
      "inputs": [],
      "name": "_headID",
      "outputs": [
        {
          "internalType": "uint256",
          "name": "_value",
          "type": "uint256"
        }
      ],
      "stateMutability": "view",
      "type": "function"
    },
    {
      "inputs": [],
      "name": "_headPaletteID",
      "outputs": [
        {
          "internalType": "uint256",
          "name": "_value",
          "type": "uint256"
        }
      ],
      "stateMutability": "view",
      "type": "function"
    },
    {
      "inputs": [],
      "name": "_jacketID",
      "outputs": [
        {
          "internalType": "uint256",
          "name": "_value",
          "type": "uint256"
        }
      ],
      "stateMutability": "view",
      "type": "function"
    },
    {
      "inputs": [],
      "name": "_jacketPaletteID",
      "outputs": [
        {
          "internalType": "uint256",
          "name": "_value",
          "type": "uint256"
        }
      ],
      "stateMutability": "view",
      "type": "function"
    },
    {
      "inputs": [],
      "name": "_skinID",
      "outputs": [
        {
          "internalType": "uint256",
          "name": "_value",
          "type": "uint256"
        }
      ],
      "stateMutability": "view",
      "type": "function"
    },
    {
      "inputs": [],
      "name": "_skinPaletteID",
      "outputs": [
        {
          "internalType": "uint256",
          "name": "_value",
          "type": "uint256"
        }
      ],
      "stateMutability": "view",
      "type": "function"
    },
    {
      "inputs": [
        {
          "internalType": "uint256[]",
          "name": "_headRLE",
          "type": "uint256[]"
        }
      ],
      "name": "addHead",
      "outputs": [],
      "stateMutability": "nonpayable",
      "type": "function"
    },
    {
      "inputs": [
        {
          "internalType": "uint256[]",
          "name": "_jacketRLE",
          "type": "uint256[]"
        }
      ],
      "name": "addJacket",
      "outputs": [],
      "stateMutability": "nonpayable",
      "type": "function"
    },
    {
      "inputs": [
        {
          "internalType": "string[]",
          "name": "newColors",
          "type": "string[]"
        }
      ],
      "name": "addManyColorsToHeadPalette",
      "outputs": [],
      "stateMutability": "nonpayable",
      "type": "function"
    },
    {
      "inputs": [
        {
          "internalType": "string[]",
          "name": "newColors",
          "type": "string[]"
        }
      ],
      "name": "addManyColorsToJacketPalette",
      "outputs": [],
      "stateMutability": "nonpayable",
      "type": "function"
    },
    {
      "inputs": [
        {
          "internalType": "string[]",
          "name": "newColors",
          "type": "string[]"
        }
      ],
      "name": "addManyColorsToSkinPalette",
      "outputs": [],
      "stateMutability": "nonpayable",
      "type": "function"
    },
    {
      "inputs": [
        {
          "internalType": "uint256[]",
          "name": "_skinRLE",
          "type": "uint256[]"
        }
      ],
      "name": "addSkin",
      "outputs": [],
      "stateMutability": "nonpayable",
      "type": "function"
    },
    {
      "inputs": [
        {
          "internalType": "address",
          "name": "to",
          "type": "address"
        },
        {
          "internalType": "uint256",
          "name": "tokenId",
          "type": "uint256"
        }
      ],
      "name": "approve",
      "outputs": [],
      "stateMutability": "nonpayable",
      "type": "function"
    },
    {
      "inputs": [
        {
          "internalType": "address",
          "name": "owner",
          "type": "address"
        }
      ],
      "name": "balanceOf",
      "outputs": [
        {
          "internalType": "uint256",
          "name": "",
          "type": "uint256"
        }
      ],
      "stateMutability": "view",
      "type": "function"
    },
    {
      "inputs": [
        {
          "internalType": "uint256[]",
          "name": "_componentRLE",
          "type": "uint256[]"
        },
        {
          "internalType": "string[]",
          "name": "_componentPalette",
          "type": "string[]"
        }
      ],
      "name": "componentToSVG",
      "outputs": [
        {
          "internalType": "bytes",
          "name": "",
          "type": "bytes"
        }
      ],
      "stateMutability": "view",
      "type": "function"
    },
    {
      "inputs": [
        {
          "internalType": "uint256",
          "name": "tokenId",
          "type": "uint256"
        }
      ],
      "name": "getApproved",
      "outputs": [
        {
          "internalType": "address",
          "name": "",
          "type": "address"
        }
      ],
      "stateMutability": "view",
      "type": "function"
    },
    {
      "inputs": [
        {
          "internalType": "uint256",
          "name": "_id",
          "type": "uint256"
        }
      ],
      "name": "getHead",
      "outputs": [
        {
          "internalType": "uint256[]",
          "name": "",
          "type": "uint256[]"
        }
      ],
      "stateMutability": "view",
      "type": "function"
    },
    {
      "inputs": [
        {
          "internalType": "uint256",
          "name": "_id",
          "type": "uint256"
        }
      ],
      "name": "getHeadPalette",
      "outputs": [
        {
          "internalType": "string[]",
          "name": "",
          "type": "string[]"
        }
      ],
      "stateMutability": "view",
      "type": "function"
    },
    {
      "inputs": [
        {
          "internalType": "uint256",
          "name": "_id",
          "type": "uint256"
        }
      ],
      "name": "getJacket",
      "outputs": [
        {
          "internalType": "uint256[]",
          "name": "",
          "type": "uint256[]"
        }
      ],
      "stateMutability": "view",
      "type": "function"
    },
    {
      "inputs": [
        {
          "internalType": "uint256",
          "name": "_id",
          "type": "uint256"
        }
      ],
      "name": "getJacketPalette",
      "outputs": [
        {
          "internalType": "string[]",
          "name": "",
          "type": "string[]"
        }
      ],
      "stateMutability": "view",
      "type": "function"
    },
    {
      "inputs": [
        {
          "internalType": "uint256",
          "name": "_id",
          "type": "uint256"
        }
      ],
      "name": "getSkin",
      "outputs": [
        {
          "internalType": "uint256[]",
          "name": "",
          "type": "uint256[]"
        }
      ],
      "stateMutability": "view",
      "type": "function"
    },
    {
      "inputs": [
        {
          "internalType": "uint256",
          "name": "_id",
          "type": "uint256"
        }
      ],
      "name": "getSkinPalette",
      "outputs": [
        {
          "internalType": "string[]",
          "name": "",
          "type": "string[]"
        }
      ],
      "stateMutability": "view",
      "type": "function"
    },
    {
      "inputs": [],
      "name": "headCount",
      "outputs": [
        {
          "internalType": "uint256",
          "name": "",
          "type": "uint256"
        }
      ],
      "stateMutability": "view",
      "type": "function"
    },
    {
      "inputs": [],
      "name": "headPaletteCount",
      "outputs": [
        {
          "internalType": "uint256",
          "name": "",
          "type": "uint256"
        }
      ],
      "stateMutability": "view",
      "type": "function"
    },
    {
      "inputs": [
        {
          "internalType": "uint256",
          "name": "",
          "type": "uint256"
        },
        {
          "internalType": "uint256",
          "name": "",
          "type": "uint256"
        }
      ],
      "name": "headPalettes",
      "outputs": [
        {
          "internalType": "string",
          "name": "",
          "type": "string"
        }
      ],
      "stateMutability": "view",
      "type": "function"
    },
    {
      "inputs": [
        {
          "internalType": "uint256",
          "name": "",
          "type": "uint256"
        },
        {
          "internalType": "uint256",
          "name": "",
          "type": "uint256"
        }
      ],
      "name": "heads",
      "outputs": [
        {
          "internalType": "uint256",
          "name": "",
          "type": "uint256"
        }
      ],
      "stateMutability": "view",
      "type": "function"
    },
    {
      "inputs": [
        {
          "internalType": "address",
          "name": "owner",
          "type": "address"
        },
        {
          "internalType": "address",
          "name": "operator",
          "type": "address"
        }
      ],
      "name": "isApprovedForAll",
      "outputs": [
        {
          "internalType": "bool",
          "name": "",
          "type": "bool"
        }
      ],
      "stateMutability": "view",
      "type": "function"
    },
    {
      "inputs": [],
      "name": "jacketCount",
      "outputs": [
        {
          "internalType": "uint256",
          "name": "",
          "type": "uint256"
        }
      ],
      "stateMutability": "view",
      "type": "function"
    },
    {
      "inputs": [],
      "name": "jacketPaletteCount",
      "outputs": [
        {
          "internalType": "uint256",
          "name": "",
          "type": "uint256"
        }
      ],
      "stateMutability": "view",
      "type": "function"
    },
    {
      "inputs": [
        {
          "internalType": "uint256",
          "name": "",
          "type": "uint256"
        },
        {
          "internalType": "uint256",
          "name": "",
          "type": "uint256"
        }
      ],
      "name": "jacketPalettes",
      "outputs": [
        {
          "internalType": "string",
          "name": "",
          "type": "string"
        }
      ],
      "stateMutability": "view",
      "type": "function"
    },
    {
      "inputs": [
        {
          "internalType": "uint256",
          "name": "",
          "type": "uint256"
        },
        {
          "internalType": "uint256",
          "name": "",
          "type": "uint256"
        }
      ],
      "name": "jackets",
      "outputs": [
        {
          "internalType": "uint256",
          "name": "",
          "type": "uint256"
        }
      ],
      "stateMutability": "view",
      "type": "function"
    },
    {
      "inputs": [
        {
          "internalType": "uint256[]",
          "name": "seed",
          "type": "uint256[]"
        },
        {
          "internalType": "string",
          "name": "url",
          "type": "string"
        }
      ],
      "name": "makeAnEpicNFT",
      "outputs": [],
      "stateMutability": "nonpayable",
      "type": "function"
    },
    {
      "inputs": [],
      "name": "name",
      "outputs": [
        {
          "internalType": "string",
          "name": "",
          "type": "string"
        }
      ],
      "stateMutability": "view",
      "type": "function"
    },
    {
      "inputs": [
        {
          "internalType": "uint256",
          "name": "tokenId",
          "type": "uint256"
        }
      ],
      "name": "ownerOf",
      "outputs": [
        {
          "internalType": "address",
          "name": "",
          "type": "address"
        }
      ],
      "stateMutability": "view",
      "type": "function"
    },
    {
      "inputs": [
        {
          "internalType": "address",
          "name": "from",
          "type": "address"
        },
        {
          "internalType": "address",
          "name": "to",
          "type": "address"
        },
        {
          "internalType": "uint256",
          "name": "tokenId",
          "type": "uint256"
        }
      ],
      "name": "safeTransferFrom",
      "outputs": [],
      "stateMutability": "nonpayable",
      "type": "function"
    },
    {
      "inputs": [
        {
          "internalType": "address",
          "name": "from",
          "type": "address"
        },
        {
          "internalType": "address",
          "name": "to",
          "type": "address"
        },
        {
          "internalType": "uint256",
          "name": "tokenId",
          "type": "uint256"
        },
        {
          "internalType": "bytes",
          "name": "data",
          "type": "bytes"
        }
      ],
      "name": "safeTransferFrom",
      "outputs": [],
      "stateMutability": "nonpayable",
      "type": "function"
    },
    {
      "inputs": [
        {
          "internalType": "address",
          "name": "operator",
          "type": "address"
        },
        {
          "internalType": "bool",
          "name": "approved",
          "type": "bool"
        }
      ],
      "name": "setApprovalForAll",
      "outputs": [],
      "stateMutability": "nonpayable",
      "type": "function"
    },
    {
      "inputs": [],
      "name": "skinCount",
      "outputs": [
        {
          "internalType": "uint256",
          "name": "",
          "type": "uint256"
        }
      ],
      "stateMutability": "view",
      "type": "function"
    },
    {
      "inputs": [],
      "name": "skinPaletteCount",
      "outputs": [
        {
          "internalType": "uint256",
          "name": "",
          "type": "uint256"
        }
      ],
      "stateMutability": "view",
      "type": "function"
    },
    {
      "inputs": [
        {
          "internalType": "uint256",
          "name": "",
          "type": "uint256"
        },
        {
          "internalType": "uint256",
          "name": "",
          "type": "uint256"
        }
      ],
      "name": "skinPalettes",
      "outputs": [
        {
          "internalType": "string",
          "name": "",
          "type": "string"
        }
      ],
      "stateMutability": "view",
      "type": "function"
    },
    {
      "inputs": [
        {
          "internalType": "uint256",
          "name": "",
          "type": "uint256"
        },
        {
          "internalType": "uint256",
          "name": "",
          "type": "uint256"
        }
      ],
      "name": "skins",
      "outputs": [
        {
          "internalType": "uint256",
          "name": "",
          "type": "uint256"
        }
      ],
      "stateMutability": "view",
      "type": "function"
    },
    {
      "inputs": [
        {
          "internalType": "bytes4",
          "name": "interfaceId",
          "type": "bytes4"
        }
      ],
      "name": "supportsInterface",
      "outputs": [
        {
          "internalType": "bool",
          "name": "",
          "type": "bool"
        }
      ],
      "stateMutability": "view",
      "type": "function"
    },
    {
      "inputs": [],
      "name": "symbol",
      "outputs": [
        {
          "internalType": "string",
          "name": "",
          "type": "string"
        }
      ],
      "stateMutability": "view",
      "type": "function"
    },
    {
      "inputs": [
        {
          "internalType": "uint256",
          "name": "tokenId",
          "type": "uint256"
        }
      ],
      "name": "tokenURI",
      "outputs": [
        {
          "internalType": "string",
          "name": "",
          "type": "string"
        }
      ],
      "stateMutability": "view",
      "type": "function"
    },
    {
      "inputs": [
        {
          "internalType": "address",
          "name": "from",
          "type": "address"
        },
        {
          "internalType": "address",
          "name": "to",
          "type": "address"
        },
        {
          "internalType": "uint256",
          "name": "tokenId",
          "type": "uint256"
        }
      ],
      "name": "transferFrom",
      "outputs": [],
      "stateMutability": "nonpayable",
      "type": "function"
    }
  ],
  "bytecode": "0x60806040523480156200001157600080fd5b506040518060400160405280600781526020017f4e59432d4e4654000000000000000000000000000000000000000000000000008152506040518060400160405280601381526020017f6e616d656c6573732d796f7574682d636c756200000000000000000000000000815250816000908051906020019062000096929190620001cf565b508060019080519060200190620000af929190620001cf565b505050620000fd6040518060400160405280601d81526020017f50726f7065727479206f66206e616d656c657373796f757468636c75620000008152506200010360201b6200264a1760201c565b620003ac565b620001a3816040516024016200011a919062000323565b6040516020818303038152906040527f41304fac000000000000000000000000000000000000000000000000000000007bffffffffffffffffffffffffffffffffffffffffffffffffffffffff19166020820180517bffffffffffffffffffffffffffffffffffffffffffffffffffffffff8381831617835250505050620001a660201b60201c565b50565b60008151905060006a636f6e736f6c652e6c6f679050602083016000808483855afa5050505050565b828054620001dd9062000376565b90600052602060002090601f0160209004810192826200020157600085556200024d565b82601f106200021c57805160ff19168380011785556200024d565b828001600101855582156200024d579182015b828111156200024c5782518255916020019190600101906200022f565b5b5090506200025c919062000260565b5090565b5b808211156200027b57600081600090555060010162000261565b5090565b600081519050919050565b600082825260208201905092915050565b60005b83811015620002bb5780820151818401526020810190506200029e565b83811115620002cb576000848401525b50505050565b6000601f19601f8301169050919050565b6000620002ef826200027f565b620002fb81856200028a565b93506200030d8185602086016200029b565b6200031881620002d1565b840191505092915050565b600060208201905081810360008301526200033f8184620002e2565b905092915050565b7f4e487b7100000000000000000000000000000000000000000000000000000000600052602260045260246000fd5b600060028204905060018216806200038f57607f821691505b60208210811415620003a657620003a562000347565b5b50919050565b61585380620003bc6000396000f3fe608060405234801561001057600080fd5b50600436106102955760003560e01c806370a0823111610167578063adf0cedf116100ce578063d11a56f011610087578063d11a56f014610870578063e1aacffa146108a0578063e2fcbca1146108d0578063e385977114610900578063e3abe1a71461091e578063e985e9c51461094e57610295565b8063adf0cedf14610788578063b88d4fde146107a6578063c87b56dd146107c2578063cc2aa091146107f2578063cc975e9014610810578063d0d94c511461084057610295565b806395d89b411161012057806395d89b41146106b65780639720c969146106d457806398e4f581146107045780639d3058e514610734578063a22cb46514610750578063aa6280bd1461076c57610295565b806370a08231146105de57806370fdde301461060e578063780410431461062c57806384847d801461064a57806389b73e1c1461067a5780638d1330081461069857610295565b80632881ecba1161020b5780634fb99d05116101c45780634fb99d05146104e657806355ea856a146105165780635badc9f31461054657806361bee69a146105765780636352211e1461059257806369b8f2e2146105c257610295565b80632881ecba14610426578063334deba91461044257806335b55fb014610460578063367e65f61461047e57806342842e0e1461049a5780634b761e81146104b657610295565b8063207652531161025d57806320765253146103525780632141cc3a1461037057806323b872dd146103a057806323d8bcb7146103bc578063248bbcf9146103da57806327bfe2d8146103f657610295565b806301ffc9a71461029a57806306fdde03146102ca578063081812fc146102e8578063095ea7b3146103185780631389048b14610334575b600080fd5b6102b460048036038101906102af9190613b6e565b61097e565b6040516102c19190613bb6565b60405180910390f35b6102d2610a60565b6040516102df9190613c6a565b60405180910390f35b61030260048036038101906102fd9190613cc2565b610af2565b60405161030f9190613d30565b60405180910390f35b610332600480360381019061032d9190613d77565b610b38565b005b61033c610c50565b6040516103499190613dc6565b60405180910390f35b61035a610c61565b6040516103679190613dc6565b60405180910390f35b61038a60048036038101906103859190613de1565b610c6d565b6040516103979190613c6a565b60405180910390f35b6103ba60048036038101906103b59190613e21565b610d26565b005b6103c4610d86565b6040516103d19190613dc6565b60405180910390f35b6103f460048036038101906103ef9190613ed9565b610d97565b005b610410600480360381019061040b91906141fa565b610e70565b60405161041d91906142c7565b60405180910390f35b610440600480360381019061043b919061433f565b61112e565b005b61044a61113c565b6040516104579190613dc6565b60405180910390f35b61046861114d565b6040516104759190613dc6565b60405180910390f35b6104986004803603810190610493919061433f565b611159565b005b6104b460048036038101906104af9190613e21565b611167565b005b6104d060048036038101906104cb9190613de1565b611187565b6040516104dd9190613c6a565b60405180910390f35b61050060048036038101906104fb9190613de1565b611240565b60405161050d9190613dc6565b60405180910390f35b610530600480360381019061052b9190613cc2565b611271565b60405161053d9190614498565b60405180910390f35b610560600480360381019061055b9190613de1565b61135d565b60405161056d9190613dc6565b60405180910390f35b610590600480360381019061058b9190613ed9565b61138e565b005b6105ac60048036038101906105a79190613cc2565b611467565b6040516105b99190613d30565b60405180910390f35b6105dc60048036038101906105d791906144ba565b611519565b005b6105f860048036038101906105f39190614536565b61165f565b6040516106059190613dc6565b60405180910390f35b610616611717565b6040516106239190613dc6565b60405180910390f35b610634611723565b6040516106419190613dc6565b60405180910390f35b610664600480360381019061065f9190613de1565b611734565b6040516106719190613dc6565b60405180910390f35b610682611765565b60405161068f9190613dc6565b60405180910390f35b6106a0611776565b6040516106ad9190613dc6565b60405180910390f35b6106be611782565b6040516106cb9190613c6a565b60405180910390f35b6106ee60048036038101906106e99190613cc2565b611814565b6040516106fb9190614621565b60405180910390f35b61071e60048036038101906107199190613cc2565b61187f565b60405161072b9190614621565b60405180910390f35b61074e60048036038101906107499190613ed9565b6118ea565b005b61076a6004803603810190610765919061466f565b6119c3565b005b6107866004803603810190610781919061433f565b6119d9565b005b6107906119e7565b60405161079d9190613dc6565b60405180910390f35b6107c060048036038101906107bb9190614750565b6119f3565b005b6107dc60048036038101906107d79190613cc2565b611a55565b6040516107e99190613c6a565b60405180910390f35b6107fa611b68565b6040516108079190613dc6565b60405180910390f35b61082a60048036038101906108259190613de1565b611b79565b6040516108379190613dc6565b60405180910390f35b61085a60048036038101906108559190613cc2565b611baa565b6040516108679190614621565b60405180910390f35b61088a60048036038101906108859190613cc2565b611c15565b6040516108979190614498565b60405180910390f35b6108ba60048036038101906108b59190613cc2565b611d01565b6040516108c79190613c6a565b60405180910390f35b6108ea60048036038101906108e59190613cc2565b612405565b6040516108f79190614498565b60405180910390f35b6109086124f1565b6040516109159190613dc6565b60405180910390f35b61093860048036038101906109339190613de1565b6124fd565b6040516109459190613c6a565b60405180910390f35b610968600480360381019061096391906147d3565b6125b6565b6040516109759190613bb6565b60405180910390f35b60007f80ac58cd000000000000000000000000000000000000000000000000000000007bffffffffffffffffffffffffffffffffffffffffffffffffffffffff1916827bffffffffffffffffffffffffffffffffffffffffffffffffffffffff19161480610a4957507f5b5e139f000000000000000000000000000000000000000000000000000000007bffffffffffffffffffffffffffffffffffffffffffffffffffffffff1916827bffffffffffffffffffffffffffffffffffffffffffffffffffffffff1916145b80610a595750610a58826126e3565b5b9050919050565b606060008054610a6f90614842565b80601f0160208091040260200160405190810160405280929190818152602001828054610a9b90614842565b8015610ae85780601f10610abd57610100808354040283529160200191610ae8565b820191906000526020600020905b815481529060010190602001808311610acb57829003601f168201915b5050505050905090565b6000610afd8261274d565b6004600083815260200190815260200160002060009054906101000a900473ffffffffffffffffffffffffffffffffffffffff169050919050565b6000610b4382611467565b90508073ffffffffffffffffffffffffffffffffffffffff168373ffffffffffffffffffffffffffffffffffffffff161415610bb4576040517f08c379a0000000000000000000000000000000000000000000000000000000008152600401610bab906148e6565b60405180910390fd5b8073ffffffffffffffffffffffffffffffffffffffff16610bd3612798565b73ffffffffffffffffffffffffffffffffffffffff161480610c025750610c0181610bfc612798565b6125b6565b5b610c41576040517f08c379a0000000000000000000000000000000000000000000000000000000008152600401610c3890614978565b60405180910390fd5b610c4b83836127a0565b505050565b6000610c5c600b612859565b905090565b60138060000154905081565b60096020528160005260406000208181548110610c8957600080fd5b90600052602060002001600091509150508054610ca590614842565b80601f0160208091040260200160405190810160405280929190818152602001828054610cd190614842565b8015610d1e5780601f10610cf357610100808354040283529160200191610d1e565b820191906000526020600020905b815481529060010190602001808311610d0157829003601f168201915b505050505081565b610d37610d31612798565b82612867565b610d76576040517f08c379a0000000000000000000000000000000000000000000000000000000008152600401610d6d90614a0a565b60405180910390fd5b610d818383836128fc565b505050565b6000610d926012612859565b905090565b61010082829050600d6000610dac600f612859565b815260200190815260200160002080549050610dc89190614a59565b1115610e09576040517f08c379a0000000000000000000000000000000000000000000000000000000008152600401610e0090614b21565b60405180910390fd5b60005b82829050811015610e6157610e4e610e24600f612859565b848484818110610e3757610e36614b41565b5b9050602002810190610e499190614b7f565b612b63565b8080610e5990614be2565b915050610e0c565b50610e6c600f612bb7565b5050565b6060600083600181518110610e8857610e87614b41565b5b60200260200101519050600084600381518110610ea857610ea7614b41565b5b60200260200101519050600085600081518110610ec857610ec7614b41565b5b6020026020010151905060006040518060200160405280600081525090506000600490505b8751811015611120576000888281518110610f0b57610f0a614b41565b5b60200260200101519050600089600184610f259190614a59565b81518110610f3657610f35614b41565b5b6020026020010151905060008114610fe1576000610f5f836014610f5a9190614c2b565b612bcd565b610f696014612bcd565b610f7289612bcd565b610f7b89612bcd565b8d8681518110610f8e57610f8d614b41565b5b6020026020010151604051602001610faa959493929190614da5565b60405160208183030381529060405290508481604051602001610fce929190614e4a565b6040516020818303038152906040529450505b816014610fee9190614c2b565b86610ff99190614a59565b955086861061110a5760148561100f9190614a59565b94508960038151811061102557611024614b41565b5b6020026020010151955060028a60028151811061104557611044614b41565b5b60200260200101518b60008151811061106157611060614b41565b5b60200260200101516110739190614a59565b61107d9190614e9d565b851115611109576110c26040518060400160405280600f81526020017f68616c66776179202a2a2a2a2a2a2a000000000000000000000000000000000081525061264a565b836110e08b8b89898c60028a6110d89190614a59565b995089612d2e565b6040516020016110f1929190614e4a565b60405160208183030381529060405293505050611120565b5b6002836111179190614a59565b92505050610eed565b819550505050505092915050565b6111388282612e97565b5050565b60006111486013612859565b905090565b600a8060000154905081565b6111638282612ed1565b5050565b611182838383604051806020016040528060008152506119f3565b505050565b601160205281600052604060002081815481106111a357600080fd5b906000526020600020016000915091505080546111bf90614842565b80601f01602080910402602001604051908101604052809291908181526020018280546111eb90614842565b80156112385780601f1061120d57610100808354040283529160200191611238565b820191906000526020600020905b81548152906001019060200180831161121b57829003601f168201915b505050505081565b6014602052816000526040600020818154811061125c57600080fd5b90600052602060002001600091509150505481565b606060096000838152602001908152602001600020805480602002602001604051908101604052809291908181526020016000905b828210156113525783829060005260206000200180546112c590614842565b80601f01602080910402602001604051908101604052809291908181526020018280546112f190614842565b801561133e5780601f106113135761010080835404028352916020019161133e565b820191906000526020600020905b81548152906001019060200180831161132157829003601f168201915b5050505050815260200190600101906112a6565b505050509050919050565b6008602052816000526040600020818154811061137957600080fd5b90600052602060002001600091509150505481565b61010082829050601160006113a36013612859565b8152602001908152602001600020805490506113bf9190614a59565b1115611400576040517f08c379a00000000000000000000000000000000000000000000000000000000081526004016113f790614b21565b60405180910390fd5b60005b828290508110156114585761144561141b6013612859565b84848481811061142e5761142d614b41565b5b90506020028101906114409190614b7f565b612f0b565b808061145090614be2565b915050611403565b506114636013612bb7565b5050565b6000806002600084815260200190815260200160002060009054906101000a900473ffffffffffffffffffffffffffffffffffffffff169050600073ffffffffffffffffffffffffffffffffffffffff168173ffffffffffffffffffffffffffffffffffffffff161415611510576040517f08c379a000000000000000000000000000000000000000000000000000000000815260040161150790614f1a565b60405180910390fd5b80915050919050565b60006115256007612859565b9050838360146000848152602001908152602001600020919061154992919061398c565b50600061157483604051602001611560919061505a565b604051602081830303815290604052612f5f565b905060008160405160200161158991906150d3565b60405160208183030381529060405290506115d86040518060400160405280600c81526020017f6d696e74696e672e2e2e2e2e000000000000000000000000000000000000000081525061264a565b6115e233846130f7565b6116206040518060400160405280601581526020017f73657474696e6720746f6b656e2049442e2e2e2e2e000000000000000000000081525061264a565b61162a8382613115565b6116346007612bb7565b6116576040518060600160405280602581526020016157b9602591398433613189565b505050505050565b60008073ffffffffffffffffffffffffffffffffffffffff168273ffffffffffffffffffffffffffffffffffffffff1614156116d0576040517f08c379a00000000000000000000000000000000000000000000000000000000081526004016116c790615167565b60405180910390fd5b600360008373ffffffffffffffffffffffffffffffffffffffff1673ffffffffffffffffffffffffffffffffffffffff168152602001908152602001600020549050919050565b600f8060000154905081565b600061172f600e612859565b905090565b6010602052816000526040600020818154811061175057600080fd5b90600052602060002001600091509150505481565b6000611771600f612859565b905090565b600e8060000154905081565b60606001805461179190614842565b80601f01602080910402602001604051908101604052809291908181526020018280546117bd90614842565b801561180a5780601f106117df5761010080835404028352916020019161180a565b820191906000526020600020905b8154815290600101906020018083116117ed57829003601f168201915b5050505050905090565b60606008600083815260200190815260200160002080548060200260200160405190810160405280929190818152602001828054801561187357602002820191906000526020600020905b81548152602001906001019080831161185f575b50505050509050919050565b6060600c60008381526020019081526020016000208054806020026020016040519081016040528092919081815260200182805480156118de57602002820191906000526020600020905b8154815260200190600101908083116118ca575b50505050509050919050565b61010082829050600960006118ff600b612859565b81526020019081526020016000208054905061191b9190614a59565b111561195c576040517f08c379a000000000000000000000000000000000000000000000000000000000815260040161195390614b21565b60405180910390fd5b60005b828290508110156119b4576119a1611977600b612859565b84848481811061198a57611989614b41565b5b905060200281019061199c9190614b7f565b613228565b80806119ac90614be2565b91505061195f565b506119bf600b612bb7565b5050565b6119d56119ce612798565b838361327c565b5050565b6119e382826133e9565b5050565b60128060000154905081565b611a046119fe612798565b83612867565b611a43576040517f08c379a0000000000000000000000000000000000000000000000000000000008152600401611a3a90614a0a565b60405180910390fd5b611a4f84848484613423565b50505050565b6060611a608261274d565b6000600660008481526020019081526020016000208054611a8090614842565b80601f0160208091040260200160405190810160405280929190818152602001828054611aac90614842565b8015611af95780601f10611ace57610100808354040283529160200191611af9565b820191906000526020600020905b815481529060010190602001808311611adc57829003601f168201915b505050505090506000611b0a61347f565b9050600081511415611b20578192505050611b63565b600082511115611b55578082604051602001611b3d929190615187565b60405160208183030381529060405292505050611b63565b611b5e84613496565b925050505b919050565b6000611b74600a612859565b905090565b600c6020528160005260406000208181548110611b9557600080fd5b90600052602060002001600091509150505481565b606060106000838152602001908152602001600020805480602002602001604051908101604052809291908181526020018280548015611c0957602002820191906000526020600020905b815481526020019060010190808311611bf5575b50505050509050919050565b606060116000838152602001908152602001600020805480602002602001604051908101604052809291908181526020016000905b82821015611cf6578382906000526020600020018054611c6990614842565b80601f0160208091040260200160405190810160405280929190818152602001828054611c9590614842565b8015611ce25780601f10611cb757610100808354040283529160200191611ce2565b820191906000526020600020905b815481529060010190602001808311611cc557829003601f168201915b505050505081526020019060010190611c4a565b505050509050919050565b6060600060146000848152602001908152602001600020805480602002602001604051908101604052809291908181526020018280548015611d6257602002820191906000526020600020905b815481526020019060010190808311611d4e575b50505050509050600081600081518110611d7f57611d7e614b41565b5b60200260200101519050600082600181518110611d9f57611d9e614b41565b5b60200260200101519050600083600281518110611dbf57611dbe614b41565b5b60200260200101519050600084600381518110611ddf57611dde614b41565b5b60200260200101519050600085600481518110611dff57611dfe614b41565b5b60200260200101519050600086600581518110611e1f57611e1e614b41565b5b60200260200101519050611e676040518060400160405280601481526020017f7374617274696e672053564720656e636f64657300000000000000000000000081525061264a565b6000604051602001611e78906152db565b604051602081830303815290604052905080611fd7600c6000888152602001908152602001600020805480602002602001604051908101604052809291908181526020018280548015611eea57602002820191906000526020600020905b815481526020019060010190808311611ed6575b5050505050600d6000888152602001908152602001600020805480602002602001604051908101604052809291908181526020016000905b82821015611fce578382906000526020600020018054611f4190614842565b80601f0160208091040260200160405190810160405280929190818152602001828054611f6d90614842565b8015611fba5780601f10611f8f57610100808354040283529160200191611fba565b820191906000526020600020905b815481529060010190602001808311611f9d57829003601f168201915b505050505081526020019060010190611f22565b50505050610e70565b604051602001611fe8929190614e4a565b60405160208183030381529060405290506120376040518060400160405280600981526020017f646f6e6520736b696e000000000000000000000000000000000000000000000081525061264a565b806121856010600086815260200190815260200160002080548060200260200160405190810160405280929190818152602001828054801561209857602002820191906000526020600020905b815481526020019060010190808311612084575b505050505060116000868152602001908152602001600020805480602002602001604051908101604052809291908181526020016000905b8282101561217c5783829060005260206000200180546120ef90614842565b80601f016020809104026020016040519081016040528092919081815260200182805461211b90614842565b80156121685780601f1061213d57610100808354040283529160200191612168565b820191906000526020600020905b81548152906001019060200180831161214b57829003601f168201915b5050505050815260200190600101906120d0565b50505050610e70565b604051602001612196929190614e4a565b60405160208183030381529060405290506121e56040518060400160405280600b81526020017f646f6e65206a61636b657400000000000000000000000000000000000000000081525061264a565b80612333600860008a815260200190815260200160002080548060200260200160405190810160405280929190818152602001828054801561224657602002820191906000526020600020905b815481526020019060010190808311612232575b5050505050600960008a8152602001908152602001600020805480602002602001604051908101604052809291908181526020016000905b8282101561232a57838290600052602060002001805461229d90614842565b80601f01602080910402602001604051908101604052809291908181526020018280546122c990614842565b80156123165780601f106122eb57610100808354040283529160200191612316565b820191906000526020600020905b8154815290600101906020018083116122f957829003601f168201915b50505050508152602001906001019061227e565b50505050610e70565b604051602001612344929190614e4a565b60405160208183030381529060405290506123936040518060400160405280600981526020017f646f6e652068656164000000000000000000000000000000000000000000000081525061264a565b806040518060400160405280600681526020017f3c2f7376673e00000000000000000000000000000000000000000000000000008152506040516020016123db929190614e4a565b60405160208183030381529060405290506123f58161264a565b8098505050505050505050919050565b6060600d6000838152602001908152602001600020805480602002602001604051908101604052809291908181526020016000905b828210156124e657838290600052602060002001805461245990614842565b80601f016020809104026020016040519081016040528092919081815260200182805461248590614842565b80156124d25780601f106124a7576101008083540402835291602001916124d2565b820191906000526020600020905b8154815290600101906020018083116124b557829003601f168201915b50505050508152602001906001019061243a565b505050509050919050565b600b8060000154905081565b600d602052816000526040600020818154811061251957600080fd5b9060005260206000200160009150915050805461253590614842565b80601f016020809104026020016040519081016040528092919081815260200182805461256190614842565b80156125ae5780601f10612583576101008083540402835291602001916125ae565b820191906000526020600020905b81548152906001019060200180831161259157829003601f168201915b505050505081565b6000600560008473ffffffffffffffffffffffffffffffffffffffff1673ffffffffffffffffffffffffffffffffffffffff16815260200190815260200160002060008373ffffffffffffffffffffffffffffffffffffffff1673ffffffffffffffffffffffffffffffffffffffff16815260200190815260200160002060009054906101000a900460ff16905092915050565b6126e08160405160240161265e9190613c6a565b6040516020818303038152906040527f41304fac000000000000000000000000000000000000000000000000000000007bffffffffffffffffffffffffffffffffffffffffffffffffffffffff19166020820180517bffffffffffffffffffffffffffffffffffffffffffffffffffffffff83818316178352505050506134fe565b50565b60007f01ffc9a7000000000000000000000000000000000000000000000000000000007bffffffffffffffffffffffffffffffffffffffffffffffffffffffff1916827bffffffffffffffffffffffffffffffffffffffffffffffffffffffff1916149050919050565b61275681613527565b612795576040517f08c379a000000000000000000000000000000000000000000000000000000000815260040161278c90614f1a565b60405180910390fd5b50565b600033905090565b816004600083815260200190815260200160002060006101000a81548173ffffffffffffffffffffffffffffffffffffffff021916908373ffffffffffffffffffffffffffffffffffffffff160217905550808273ffffffffffffffffffffffffffffffffffffffff1661281383611467565b73ffffffffffffffffffffffffffffffffffffffff167f8c5be1e5ebec7d5bd14f71427d1e84f3dd0314c0f7b2291e5b200ac8c7c3b92560405160405180910390a45050565b600081600001549050919050565b60008061287383611467565b90508073ffffffffffffffffffffffffffffffffffffffff168473ffffffffffffffffffffffffffffffffffffffff1614806128b557506128b481856125b6565b5b806128f357508373ffffffffffffffffffffffffffffffffffffffff166128db84610af2565b73ffffffffffffffffffffffffffffffffffffffff16145b91505092915050565b8273ffffffffffffffffffffffffffffffffffffffff1661291c82611467565b73ffffffffffffffffffffffffffffffffffffffff1614612972576040517f08c379a00000000000000000000000000000000000000000000000000000000081526004016129699061536d565b60405180910390fd5b600073ffffffffffffffffffffffffffffffffffffffff168273ffffffffffffffffffffffffffffffffffffffff1614156129e2576040517f08c379a00000000000000000000000000000000000000000000000000000000081526004016129d9906153ff565b60405180910390fd5b6129ed838383613593565b6129f86000826127a0565b6001600360008573ffffffffffffffffffffffffffffffffffffffff1673ffffffffffffffffffffffffffffffffffffffff1681526020019081526020016000206000828254612a48919061541f565b925050819055506001600360008473ffffffffffffffffffffffffffffffffffffffff1673ffffffffffffffffffffffffffffffffffffffff1681526020019081526020016000206000828254612a9f9190614a59565b92505081905550816002600083815260200190815260200160002060006101000a81548173ffffffffffffffffffffffffffffffffffffffff021916908373ffffffffffffffffffffffffffffffffffffffff160217905550808273ffffffffffffffffffffffffffffffffffffffff168473ffffffffffffffffffffffffffffffffffffffff167fddf252ad1be2c89b69c2b068fc378daa952ba7f163c4a11628f55a4df523b3ef60405160405180910390a4612b5e838383613598565b505050565b600d6000848152602001908152602001600020828290918060018154018082558091505060019003906000526020600020016000909192909192909192909192509190612bb19291906139d9565b50505050565b6001816000016000828254019250508190555050565b60606000821415612c15576040518060400160405280600181526020017f30000000000000000000000000000000000000000000000000000000000000008152509050612d29565b600082905060005b60008214612c47578080612c3090614be2565b915050600a82612c409190614e9d565b9150612c1d565b60008167ffffffffffffffff811115612c6357612c62613f26565b5b6040519080825280601f01601f191660200182016040528015612c955781602001600182028036833780820191505090505b5090505b60008514612d2257600182612cae919061541f565b9150600a85612cbd9190615453565b6030612cc99190614a59565b60f81b818381518110612cdf57612cde614b41565b5b60200101907effffffffffffffffffffffffffffffffffffffffffffffffffffffffffffff1916908160001a905350600a85612d1b9190614e9d565b9450612c99565b8093505050505b919050565b6060600085905060006040518060200160405280600081525090505b8851841015612e88576000898581518110612d6857612d67614b41565b5b6020026020010151905060008a600187612d829190614a59565b81518110612d9357612d92614b41565b5b6020026020010151905060008114612e3e576000612dbc836014612db79190614c2b565b612bcd565b612dc66014612bcd565b612dcf8c612bcd565b612dd88c612bcd565b8e8681518110612deb57612dea614b41565b5b6020026020010151604051602001612e07959493929190614da5565b60405160208183030381529060405290508381604051602001612e2b929190614e4a565b6040516020818303038152906040529350505b816014612e4b9190614c2b565b89612e569190614a59565b9850868910612e7257601488612e6c9190614a59565b97508398505b600286612e7f9190614a59565b95505050612d4a565b80925050509695505050505050565b8181600c6000612ea7600e612859565b81526020019081526020016000209190612ec292919061398c565b50612ecd600e612bb7565b5050565b818160086000612ee1600a612859565b81526020019081526020016000209190612efc92919061398c565b50612f07600a612bb7565b5050565b60116000848152602001908152602001600020828290918060018154018082558091505060019003906000526020600020016000909192909192909192909192509190612f599291906139d9565b50505050565b60606000825190506000811415612f8857604051806020016040528060008152509150506130f2565b60006003600283612f999190614a59565b612fa39190614e9d565b6004612faf9190614c2b565b90506000602082612fc09190614a59565b67ffffffffffffffff811115612fd957612fd8613f26565b5b6040519080825280601f01601f19166020018201604052801561300b5781602001600182028036833780820191505090505b50905060006040518060600160405280604081526020016157de604091399050600181016020830160005b868110156130af5760038101905062ffffff818a015116603f8160121c168401518060081b905060ff603f83600c1c1686015116810190508060081b905060ff603f8360061c1686015116810190508060081b905060ff603f831686015116810190508060e01b90508084526004840193505050613036565b5060038606600181146130c957600281146130d9576130e4565b613d3d60f01b60028303526130e4565b603d60f81b60018303525b508484525050819450505050505b919050565b61311182826040518060200160405280600081525061359d565b5050565b61311e82613527565b61315d576040517f08c379a0000000000000000000000000000000000000000000000000000000008152600401613154906154f6565b60405180910390fd5b80600660008481526020019081526020016000209080519060200190613184929190613a5f565b505050565b6132238383836040516024016131a193929190615516565b6040516020818303038152906040527fe3849f79000000000000000000000000000000000000000000000000000000007bffffffffffffffffffffffffffffffffffffffffffffffffffffffff19166020820180517bffffffffffffffffffffffffffffffffffffffffffffffffffffffff83818316178352505050506134fe565b505050565b600960008481526020019081526020016000208282909180600181540180825580915050600190039060005260206000200160009091929091929091929091925091906132769291906139d9565b50505050565b8173ffffffffffffffffffffffffffffffffffffffff168373ffffffffffffffffffffffffffffffffffffffff1614156132eb576040517f08c379a00000000000000000000000000000000000000000000000000000000081526004016132e2906155a0565b60405180910390fd5b80600560008573ffffffffffffffffffffffffffffffffffffffff1673ffffffffffffffffffffffffffffffffffffffff16815260200190815260200160002060008473ffffffffffffffffffffffffffffffffffffffff1673ffffffffffffffffffffffffffffffffffffffff16815260200190815260200160002060006101000a81548160ff0219169083151502179055508173ffffffffffffffffffffffffffffffffffffffff168373ffffffffffffffffffffffffffffffffffffffff167f17307eab39ab6107e8899845ad3d59bd9653f200f220920489ca2b5937696c31836040516133dc9190613bb6565b60405180910390a3505050565b8181601060006133f96012612859565b8152602001908152602001600020919061341492919061398c565b5061341f6012612bb7565b5050565b61342e8484846128fc565b61343a848484846135f8565b613479576040517f08c379a000000000000000000000000000000000000000000000000000000000815260040161347090615632565b60405180910390fd5b50505050565b606060405180602001604052806000815250905090565b60606134a18261274d565b60006134ab61347f565b905060008151116134cb57604051806020016040528060008152506134f6565b806134d584612bcd565b6040516020016134e6929190615187565b6040516020818303038152906040525b915050919050565b60008151905060006a636f6e736f6c652e6c6f679050602083016000808483855afa5050505050565b60008073ffffffffffffffffffffffffffffffffffffffff166002600084815260200190815260200160002060009054906101000a900473ffffffffffffffffffffffffffffffffffffffff1673ffffffffffffffffffffffffffffffffffffffff1614159050919050565b505050565b505050565b6135a7838361378f565b6135b460008484846135f8565b6135f3576040517f08c379a00000000000000000000000000000000000000000000000000000000081526004016135ea90615632565b60405180910390fd5b505050565b60006136198473ffffffffffffffffffffffffffffffffffffffff16613969565b15613782578373ffffffffffffffffffffffffffffffffffffffff1663150b7a02613642612798565b8786866040518563ffffffff1660e01b81526004016136649493929190615652565b602060405180830381600087803b15801561367e57600080fd5b505af19250505080156136af57506040513d601f19601f820116820180604052508101906136ac91906156b3565b60015b613732573d80600081146136df576040519150601f19603f3d011682016040523d82523d6000602084013e6136e4565b606091505b5060008151141561372a576040517f08c379a000000000000000000000000000000000000000000000000000000000815260040161372190615632565b60405180910390fd5b805181602001fd5b63150b7a0260e01b7bffffffffffffffffffffffffffffffffffffffffffffffffffffffff1916817bffffffffffffffffffffffffffffffffffffffffffffffffffffffff191614915050613787565b600190505b949350505050565b600073ffffffffffffffffffffffffffffffffffffffff168273ffffffffffffffffffffffffffffffffffffffff1614156137ff576040517f08c379a00000000000000000000000000000000000000000000000000000000081526004016137f69061572c565b60405180910390fd5b61380881613527565b15613848576040517f08c379a000000000000000000000000000000000000000000000000000000000815260040161383f90615798565b60405180910390fd5b61385460008383613593565b6001600360008473ffffffffffffffffffffffffffffffffffffffff1673ffffffffffffffffffffffffffffffffffffffff16815260200190815260200160002060008282546138a49190614a59565b92505081905550816002600083815260200190815260200160002060006101000a81548173ffffffffffffffffffffffffffffffffffffffff021916908373ffffffffffffffffffffffffffffffffffffffff160217905550808273ffffffffffffffffffffffffffffffffffffffff16600073ffffffffffffffffffffffffffffffffffffffff167fddf252ad1be2c89b69c2b068fc378daa952ba7f163c4a11628f55a4df523b3ef60405160405180910390a461396560008383613598565b5050565b6000808273ffffffffffffffffffffffffffffffffffffffff163b119050919050565b8280548282559060005260206000209081019282156139c8579160200282015b828111156139c75782358255916020019190600101906139ac565b5b5090506139d59190613ae5565b5090565b8280546139e590614842565b90600052602060002090601f016020900481019282613a075760008555613a4e565b82601f10613a2057803560ff1916838001178555613a4e565b82800160010185558215613a4e579182015b82811115613a4d578235825591602001919060010190613a32565b5b509050613a5b9190613ae5565b5090565b828054613a6b90614842565b90600052602060002090601f016020900481019282613a8d5760008555613ad4565b82601f10613aa657805160ff1916838001178555613ad4565b82800160010185558215613ad4579182015b82811115613ad3578251825591602001919060010190613ab8565b5b509050613ae19190613ae5565b5090565b5b80821115613afe576000816000905550600101613ae6565b5090565b6000604051905090565b600080fd5b600080fd5b60007fffffffff0000000000000000000000000000000000000000000000000000000082169050919050565b613b4b81613b16565b8114613b5657600080fd5b50565b600081359050613b6881613b42565b92915050565b600060208284031215613b8457613b83613b0c565b5b6000613b9284828501613b59565b91505092915050565b60008115159050919050565b613bb081613b9b565b82525050565b6000602082019050613bcb6000830184613ba7565b92915050565b600081519050919050565b600082825260208201905092915050565b60005b83811015613c0b578082015181840152602081019050613bf0565b83811115613c1a576000848401525b50505050565b6000601f19601f8301169050919050565b6000613c3c82613bd1565b613c468185613bdc565b9350613c56818560208601613bed565b613c5f81613c20565b840191505092915050565b60006020820190508181036000830152613c848184613c31565b905092915050565b6000819050919050565b613c9f81613c8c565b8114613caa57600080fd5b50565b600081359050613cbc81613c96565b92915050565b600060208284031215613cd857613cd7613b0c565b5b6000613ce684828501613cad565b91505092915050565b600073ffffffffffffffffffffffffffffffffffffffff82169050919050565b6000613d1a82613cef565b9050919050565b613d2a81613d0f565b82525050565b6000602082019050613d456000830184613d21565b92915050565b613d5481613d0f565b8114613d5f57600080fd5b50565b600081359050613d7181613d4b565b92915050565b60008060408385031215613d8e57613d8d613b0c565b5b6000613d9c85828601613d62565b9250506020613dad85828601613cad565b9150509250929050565b613dc081613c8c565b82525050565b6000602082019050613ddb6000830184613db7565b92915050565b60008060408385031215613df857613df7613b0c565b5b6000613e0685828601613cad565b9250506020613e1785828601613cad565b9150509250929050565b600080600060608486031215613e3a57613e39613b0c565b5b6000613e4886828701613d62565b9350506020613e5986828701613d62565b9250506040613e6a86828701613cad565b9150509250925092565b600080fd5b600080fd5b600080fd5b60008083601f840112613e9957613e98613e74565b5b8235905067ffffffffffffffff811115613eb657613eb5613e79565b5b602083019150836020820283011115613ed257613ed1613e7e565b5b9250929050565b60008060208385031215613ef057613eef613b0c565b5b600083013567ffffffffffffffff811115613f0e57613f0d613b11565b5b613f1a85828601613e83565b92509250509250929050565b7f4e487b7100000000000000000000000000000000000000000000000000000000600052604160045260246000fd5b613f5e82613c20565b810181811067ffffffffffffffff82111715613f7d57613f7c613f26565b5b80604052505050565b6000613f90613b02565b9050613f9c8282613f55565b919050565b600067ffffffffffffffff821115613fbc57613fbb613f26565b5b602082029050602081019050919050565b6000613fe0613fdb84613fa1565b613f86565b9050808382526020820190506020840283018581111561400357614002613e7e565b5b835b8181101561402c57806140188882613cad565b845260208401935050602081019050614005565b5050509392505050565b600082601f83011261404b5761404a613e74565b5b813561405b848260208601613fcd565b91505092915050565b600067ffffffffffffffff82111561407f5761407e613f26565b5b602082029050602081019050919050565b600080fd5b600067ffffffffffffffff8211156140b0576140af613f26565b5b6140b982613c20565b9050602081019050919050565b82818337600083830152505050565b60006140e86140e384614095565b613f86565b90508281526020810184848401111561410457614103614090565b5b61410f8482856140c6565b509392505050565b600082601f83011261412c5761412b613e74565b5b813561413c8482602086016140d5565b91505092915050565b600061415861415384614064565b613f86565b9050808382526020820190506020840283018581111561417b5761417a613e7e565b5b835b818110156141c257803567ffffffffffffffff8111156141a05761419f613e74565b5b8086016141ad8982614117565b8552602085019450505060208101905061417d565b5050509392505050565b600082601f8301126141e1576141e0613e74565b5b81356141f1848260208601614145565b91505092915050565b6000806040838503121561421157614210613b0c565b5b600083013567ffffffffffffffff81111561422f5761422e613b11565b5b61423b85828601614036565b925050602083013567ffffffffffffffff81111561425c5761425b613b11565b5b614268858286016141cc565b9150509250929050565b600081519050919050565b600082825260208201905092915050565b600061429982614272565b6142a3818561427d565b93506142b3818560208601613bed565b6142bc81613c20565b840191505092915050565b600060208201905081810360008301526142e1818461428e565b905092915050565b60008083601f8401126142ff576142fe613e74565b5b8235905067ffffffffffffffff81111561431c5761431b613e79565b5b60208301915083602082028301111561433857614337613e7e565b5b9250929050565b6000806020838503121561435657614355613b0c565b5b600083013567ffffffffffffffff81111561437457614373613b11565b5b614380858286016142e9565b92509250509250929050565b600081519050919050565b600082825260208201905092915050565b6000819050602082019050919050565b600082825260208201905092915050565b60006143d482613bd1565b6143de81856143b8565b93506143ee818560208601613bed565b6143f781613c20565b840191505092915050565b600061440e83836143c9565b905092915050565b6000602082019050919050565b600061442e8261438c565b6144388185614397565b93508360208202850161444a856143a8565b8060005b8581101561448657848403895281516144678582614402565b945061447283614416565b925060208a0199505060018101905061444e565b50829750879550505050505092915050565b600060208201905081810360008301526144b28184614423565b905092915050565b6000806000604084860312156144d3576144d2613b0c565b5b600084013567ffffffffffffffff8111156144f1576144f0613b11565b5b6144fd868287016142e9565b9350935050602084013567ffffffffffffffff8111156145205761451f613b11565b5b61452c86828701614117565b9150509250925092565b60006020828403121561454c5761454b613b0c565b5b600061455a84828501613d62565b91505092915050565b600081519050919050565b600082825260208201905092915050565b6000819050602082019050919050565b61459881613c8c565b82525050565b60006145aa838361458f565b60208301905092915050565b6000602082019050919050565b60006145ce82614563565b6145d8818561456e565b93506145e38361457f565b8060005b838110156146145781516145fb888261459e565b9750614606836145b6565b9250506001810190506145e7565b5085935050505092915050565b6000602082019050818103600083015261463b81846145c3565b905092915050565b61464c81613b9b565b811461465757600080fd5b50565b60008135905061466981614643565b92915050565b6000806040838503121561468657614685613b0c565b5b600061469485828601613d62565b92505060206146a58582860161465a565b9150509250929050565b600067ffffffffffffffff8211156146ca576146c9613f26565b5b6146d382613c20565b9050602081019050919050565b60006146f36146ee846146af565b613f86565b90508281526020810184848401111561470f5761470e614090565b5b61471a8482856140c6565b509392505050565b600082601f83011261473757614736613e74565b5b81356147478482602086016146e0565b91505092915050565b6000806000806080858703121561476a57614769613b0c565b5b600061477887828801613d62565b945050602061478987828801613d62565b935050604061479a87828801613cad565b925050606085013567ffffffffffffffff8111156147bb576147ba613b11565b5b6147c787828801614722565b91505092959194509250565b600080604083850312156147ea576147e9613b0c565b5b60006147f885828601613d62565b925050602061480985828601613d62565b9150509250929050565b7f4e487b7100000000000000000000000000000000000000000000000000000000600052602260045260246000fd5b6000600282049050600182168061485a57607f821691505b6020821081141561486e5761486d614813565b5b50919050565b7f4552433732313a20617070726f76616c20746f2063757272656e74206f776e6560008201527f7200000000000000000000000000000000000000000000000000000000000000602082015250565b60006148d0602183613bdc565b91506148db82614874565b604082019050919050565b600060208201905081810360008301526148ff816148c3565b9050919050565b7f4552433732313a20617070726f76652063616c6c6572206973206e6f7420746f60008201527f6b656e206f776e6572206e6f7220617070726f76656420666f7220616c6c0000602082015250565b6000614962603e83613bdc565b915061496d82614906565b604082019050919050565b6000602082019050818103600083015261499181614955565b9050919050565b7f4552433732313a2063616c6c6572206973206e6f7420746f6b656e206f776e6560008201527f72206e6f7220617070726f766564000000000000000000000000000000000000602082015250565b60006149f4602e83613bdc565b91506149ff82614998565b604082019050919050565b60006020820190508181036000830152614a23816149e7565b9050919050565b7f4e487b7100000000000000000000000000000000000000000000000000000000600052601160045260246000fd5b6000614a6482613c8c565b9150614a6f83613c8c565b9250827fffffffffffffffffffffffffffffffffffffffffffffffffffffffffffffffff03821115614aa457614aa3614a2a565b5b828201905092915050565b7f50616c65747465732063616e206f6e6c7920686f6c642032353620636f6c6f7260008201527f7300000000000000000000000000000000000000000000000000000000000000602082015250565b6000614b0b602183613bdc565b9150614b1682614aaf565b604082019050919050565b60006020820190508181036000830152614b3a81614afe565b9050919050565b7f4e487b7100000000000000000000000000000000000000000000000000000000600052603260045260246000fd5b600080fd5b600080fd5b600080fd5b60008083356001602003843603038112614b9c57614b9b614b70565b5b80840192508235915067ffffffffffffffff821115614bbe57614bbd614b75565b5b602083019250600182023603831315614bda57614bd9614b7a565b5b509250929050565b6000614bed82613c8c565b91507fffffffffffffffffffffffffffffffffffffffffffffffffffffffffffffffff821415614c2057614c1f614a2a565b5b600182019050919050565b6000614c3682613c8c565b9150614c4183613c8c565b9250817fffffffffffffffffffffffffffffffffffffffffffffffffffffffffffffffff0483118215151615614c7a57614c79614a2a565b5b828202905092915050565b7f3c726563742077696474683d2200000000000000000000000000000000000000815250565b600081905092915050565b6000614cc182614272565b614ccb8185614cab565b9350614cdb818560208601613bed565b80840191505092915050565b7f22206865696768743d2200000000000000000000000000000000000000000000815250565b7f2220783d22000000000000000000000000000000000000000000000000000000815250565b7f2220793d22000000000000000000000000000000000000000000000000000000815250565b7f222066696c6c3d22000000000000000000000000000000000000000000000000815250565b7f222f3e0000000000000000000000000000000000000000000000000000000000815250565b6000614db082614c85565b600d82019150614dc08288614cb6565b9150614dcb82614ce7565b600a82019150614ddb8287614cb6565b9150614de682614d0d565b600582019150614df68286614cb6565b9150614e0182614d33565b600582019150614e118285614cb6565b9150614e1c82614d59565b600882019150614e2c8284614cb6565b9150614e3782614d7f565b6003820191508190509695505050505050565b6000614e568285614cb6565b9150614e628284614cb6565b91508190509392505050565b7f4e487b7100000000000000000000000000000000000000000000000000000000600052601260045260246000fd5b6000614ea882613c8c565b9150614eb383613c8c565b925082614ec357614ec2614e6e565b5b828204905092915050565b7f4552433732313a20696e76616c696420746f6b656e2049440000000000000000600082015250565b6000614f04601883613bdc565b9150614f0f82614ece565b602082019050919050565b60006020820190508181036000830152614f3381614ef7565b9050919050565b600081905092915050565b7f7b226e616d65223a20226e7963222c20226465736372697074696f6e223a202260008201527f4120686967686c79206163636c61696d656420636f6c6c656374696f6e206f6660208201527f20737175617265732e222c2022696d616765223a202200000000000000000000604082015250565b6000614fc7605683614f3a565b9150614fd282614f45565b605682019050919050565b6000614fe882613bd1565b614ff28185614f3a565b9350615002818560208601613bed565b80840191505092915050565b7f227d000000000000000000000000000000000000000000000000000000000000600082015250565b6000615044600283614f3a565b915061504f8261500e565b600282019050919050565b600061506582614fba565b91506150718284614fdd565b915061507c82615037565b915081905092915050565b7f646174613a6170706c69636174696f6e2f6a736f6e3b6261736536342c000000600082015250565b60006150bd601d83614f3a565b91506150c882615087565b601d82019050919050565b60006150de826150b0565b91506150ea8284614fdd565b915081905092915050565b7f4552433732313a2061646472657373207a65726f206973206e6f74206120766160008201527f6c6964206f776e65720000000000000000000000000000000000000000000000602082015250565b6000615151602983613bdc565b915061515c826150f5565b604082019050919050565b6000602082019050818103600083015261518081615144565b9050919050565b60006151938285614fdd565b915061519f8284614fdd565b91508190509392505050565b7f3c7376672077696474683d2237383022206865696768743d223130303022207660008201527f696577626f78203d22302c302c3738302c313030302220786d6c6e733d22687460208201527f74703a2f2f7777772e77332e6f72672f323030302f737667222073686170652d60408201527f72656e646572696e673d2263726973704564676573223e000000000000000000606082015250565b6000615253607783614cab565b915061525e826151ab565b607782019050919050565b7f3c726563742077696474683d223130302522206865696768743d22313030252260008201527f2066696c6c3d2223666663636362222f3e000000000000000000000000000000602082015250565b60006152c5603183614cab565b91506152d082615269565b603182019050919050565b60006152e682615246565b91506152f1826152b8565b9150819050919050565b7f4552433732313a207472616e736665722066726f6d20696e636f72726563742060008201527f6f776e6572000000000000000000000000000000000000000000000000000000602082015250565b6000615357602583613bdc565b9150615362826152fb565b604082019050919050565b600060208201905081810360008301526153868161534a565b9050919050565b7f4552433732313a207472616e7366657220746f20746865207a65726f2061646460008201527f7265737300000000000000000000000000000000000000000000000000000000602082015250565b60006153e9602483613bdc565b91506153f48261538d565b604082019050919050565b60006020820190508181036000830152615418816153dc565b9050919050565b600061542a82613c8c565b915061543583613c8c565b92508282101561544857615447614a2a565b5b828203905092915050565b600061545e82613c8c565b915061546983613c8c565b92508261547957615478614e6e565b5b828206905092915050565b7f45524337323155524953746f726167653a2055524920736574206f66206e6f6e60008201527f6578697374656e7420746f6b656e000000000000000000000000000000000000602082015250565b60006154e0602e83613bdc565b91506154eb82615484565b604082019050919050565b6000602082019050818103600083015261550f816154d3565b9050919050565b600060608201905081810360008301526155308186613c31565b905061553f6020830185613db7565b61554c6040830184613d21565b949350505050565b7f4552433732313a20617070726f766520746f2063616c6c657200000000000000600082015250565b600061558a601983613bdc565b915061559582615554565b602082019050919050565b600060208201905081810360008301526155b98161557d565b9050919050565b7f4552433732313a207472616e7366657220746f206e6f6e20455243373231526560008201527f63656976657220696d706c656d656e7465720000000000000000000000000000602082015250565b600061561c603283613bdc565b9150615627826155c0565b604082019050919050565b6000602082019050818103600083015261564b8161560f565b9050919050565b60006080820190506156676000830187613d21565b6156746020830186613d21565b6156816040830185613db7565b8181036060830152615693818461428e565b905095945050505050565b6000815190506156ad81613b42565b92915050565b6000602082840312156156c9576156c8613b0c565b5b60006156d78482850161569e565b91505092915050565b7f4552433732313a206d696e7420746f20746865207a65726f2061646472657373600082015250565b6000615716602083613bdc565b9150615721826156e0565b602082019050919050565b6000602082019050818103600083015261574581615709565b9050919050565b7f4552433732313a20746f6b656e20616c7265616479206d696e74656400000000600082015250565b6000615782601c83613bdc565b915061578d8261574c565b602082019050919050565b600060208201905081810360008301526157b181615775565b905091905056fe416e204e465420772f20494420257320686173206265656e206d696e74656420746f2025734142434445464748494a4b4c4d4e4f505152535455565758595a6162636465666768696a6b6c6d6e6f707172737475767778797a303132333435363738392b2fa2646970667358221220d32c0f4c1e229aefc4e85b0df44c3f4f708e9d0210af2a5a1844394fce5b8ddf64736f6c63430008090033",
  "linkReferences": {},
  "deployedLinkReferences": {}
}